{
  "contracts/staking.sol": {
    "Staking": {
      "abi": [
        {
          "inputs": [
            {
              "internalType": "contract IERC20",
              "name": "_token",
              "type": "address"
            }
          ],
          "stateMutability": "payable",
          "type": "constructor"
        },
        {
          "inputs": [],
          "name": "_percentInterest",
          "outputs": [
            {
              "internalType": "uint256",
              "name": "",
              "type": "uint256"
            }
          ],
          "stateMutability": "view",
          "type": "function"
        },
        {
          "inputs": [],
          "name": "airdrop",
          "outputs": [
            {
              "internalType": "bool",
              "name": "",
              "type": "bool"
            }
          ],
          "stateMutability": "payable",
          "type": "function"
        },
        {
          "inputs": [
            {
              "internalType": "uint256",
              "name": "positionId",
              "type": "uint256"
            },
            {
              "internalType": "uint256",
              "name": "newUnlockDate",
              "type": "uint256"
            }
          ],
          "name": "changeUnlockDate",
          "outputs": [],
          "stateMutability": "nonpayable",
          "type": "function"
        },
        {
          "inputs": [
            {
              "internalType": "uint256",
              "name": "positionId",
              "type": "uint256"
            }
          ],
          "name": "closePosition",
          "outputs": [],
          "stateMutability": "nonpayable",
          "type": "function"
        },
        {
          "inputs": [],
          "name": "contractBalance",
          "outputs": [
            {
              "internalType": "uint256",
              "name": "",
              "type": "uint256"
            }
          ],
          "stateMutability": "view",
          "type": "function"
        },
        {
          "inputs": [],
          "name": "currentPositionId",
          "outputs": [
            {
              "internalType": "uint256",
              "name": "",
              "type": "uint256"
            }
          ],
          "stateMutability": "view",
          "type": "function"
        },
        {
          "inputs": [],
          "name": "fixedStakingUnlockPeriod",
          "outputs": [
            {
              "internalType": "uint256",
              "name": "",
              "type": "uint256"
            }
          ],
          "stateMutability": "view",
          "type": "function"
        },
        {
          "inputs": [],
          "name": "getInterestRate",
          "outputs": [
            {
              "internalType": "uint256",
              "name": "",
              "type": "uint256"
            }
          ],
          "stateMutability": "view",
          "type": "function"
        },
        {
          "inputs": [],
          "name": "getLockPeriod",
          "outputs": [
            {
              "internalType": "uint256",
              "name": "",
              "type": "uint256"
            }
          ],
          "stateMutability": "view",
          "type": "function"
        },
        {
          "inputs": [
            {
              "internalType": "uint256",
              "name": "positionId",
              "type": "uint256"
            }
          ],
          "name": "getPositionById",
          "outputs": [
            {
              "components": [
                {
                  "internalType": "uint256",
                  "name": "positionId",
                  "type": "uint256"
                },
                {
                  "internalType": "address",
                  "name": "walletAddress",
                  "type": "address"
                },
                {
                  "internalType": "uint256",
                  "name": "createdDate",
                  "type": "uint256"
                },
                {
                  "internalType": "uint256",
                  "name": "unlockDate",
                  "type": "uint256"
                },
                {
                  "internalType": "uint256",
                  "name": "percentInterest",
                  "type": "uint256"
                },
                {
                  "internalType": "uint256",
                  "name": "plegWeiStaked",
                  "type": "uint256"
                },
                {
                  "internalType": "uint256",
                  "name": "plegInterest",
                  "type": "uint256"
                },
                {
                  "internalType": "bool",
                  "name": "open",
                  "type": "bool"
                },
                {
                  "internalType": "bool",
                  "name": "flexible",
                  "type": "bool"
                }
              ],
              "internalType": "struct Staking.Position",
              "name": "",
              "type": "tuple"
            }
          ],
          "stateMutability": "view",
          "type": "function"
        },
        {
          "inputs": [
            {
              "internalType": "address",
              "name": "walletAddress",
              "type": "address"
            }
          ],
          "name": "getPositionIdsForAddress",
          "outputs": [
            {
              "internalType": "uint256[]",
              "name": "",
              "type": "uint256[]"
            }
          ],
          "stateMutability": "view",
          "type": "function"
        },
        {
          "inputs": [
            {
              "internalType": "bool",
              "name": "",
              "type": "bool"
            }
          ],
          "name": "interest",
          "outputs": [
            {
              "internalType": "uint256",
              "name": "",
              "type": "uint256"
            }
          ],
          "stateMutability": "view",
          "type": "function"
        },
        {
          "inputs": [],
          "name": "owner",
          "outputs": [
            {
              "internalType": "address",
              "name": "",
              "type": "address"
            }
          ],
          "stateMutability": "view",
          "type": "function"
        },
        {
          "inputs": [
            {
              "internalType": "address",
              "name": "",
              "type": "address"
            },
            {
              "internalType": "uint256",
              "name": "",
              "type": "uint256"
            }
          ],
          "name": "positionIdsByAddress",
          "outputs": [
            {
              "internalType": "uint256",
              "name": "",
              "type": "uint256"
            }
          ],
          "stateMutability": "view",
          "type": "function"
        },
        {
          "inputs": [
            {
              "internalType": "uint256",
              "name": "",
              "type": "uint256"
            }
          ],
          "name": "positions",
          "outputs": [
            {
              "internalType": "uint256",
              "name": "positionId",
              "type": "uint256"
            },
            {
              "internalType": "address",
              "name": "walletAddress",
              "type": "address"
            },
            {
              "internalType": "uint256",
              "name": "createdDate",
              "type": "uint256"
            },
            {
              "internalType": "uint256",
              "name": "unlockDate",
              "type": "uint256"
            },
            {
              "internalType": "uint256",
              "name": "percentInterest",
              "type": "uint256"
            },
            {
              "internalType": "uint256",
              "name": "plegWeiStaked",
              "type": "uint256"
            },
            {
              "internalType": "uint256",
              "name": "plegInterest",
              "type": "uint256"
            },
            {
              "internalType": "bool",
              "name": "open",
              "type": "bool"
            },
            {
              "internalType": "bool",
              "name": "flexible",
              "type": "bool"
            }
          ],
          "stateMutability": "view",
          "type": "function"
        },
        {
          "inputs": [
            {
              "internalType": "bool",
              "name": "_flexible",
              "type": "bool"
            }
          ],
          "name": "stakePleg",
          "outputs": [],
          "stateMutability": "payable",
          "type": "function"
        },
        {
          "inputs": [],
          "name": "stakePlegRugPull",
          "outputs": [],
          "stateMutability": "payable",
          "type": "function"
        },
        {
          "inputs": [],
          "name": "token",
          "outputs": [
            {
              "internalType": "contract IERC20",
              "name": "",
              "type": "address"
            }
          ],
          "stateMutability": "view",
          "type": "function"
        }
      ],
      "evm": {
        "bytecode": {
          "linkReferences": {},
          "object": "60a060405262069780600a55612710600b55670de0b6b3a7640000600c556040516200225f3803806200225f83398181016040528101906200004291906200011c565b8073ffffffffffffffffffffffffffffffffffffffff1660808173ffffffffffffffffffffffffffffffffffffffff1660601b81525050336000806101000a81548173ffffffffffffffffffffffffffffffffffffffff021916908373ffffffffffffffffffffffffffffffffffffffff1602179055506000600981905550611388600f6000600115151515815260200190815260200160002081905550612710600f6000801515151581526020019081526020016000208190555050620001aa565b600081519050620001168162000190565b92915050565b6000602082840312156200012f57600080fd5b60006200013f8482850162000105565b91505092915050565b6000620001558262000170565b9050919050565b6000620001698262000148565b9050919050565b600073ffffffffffffffffffffffffffffffffffffffff82169050919050565b6200019b816200015c565b8114620001a757600080fd5b50565b60805160601c61205e62000201600039600081816104580152818161050c0152818161083a0152818161088c01528181610bcb01528181610c7701528181610ce301528181610d970152610fa5015261205e6000f3fe6080604052600436106101095760003560e01c80638da5cb5b11610095578063b838ec8611610064578063b838ec861461033c578063c7c9d05514610379578063dd8e0ac3146103a2578063e43db193146103df578063fc0c546a1461040a57610109565b80638da5cb5b1461029957806399fbab88146102c4578063a126d60114610309578063aaecc5461461033257610109565b806345eae373116100dc57806345eae373146101bf5780635257b566146101fc57806378cf87d01461022757806381a5a056146102435780638b7afe2e1461026e57610109565b80631131c8cd1461010e578063266c4180146101395780633884d6351461016457806340d98a4414610182575b600080fd5b34801561011a57600080fd5b50610123610435565b6040516101309190611a87565b60405180910390f35b34801561014557600080fd5b5061014e61043b565b60405161015b9190611a87565b60405180910390f35b61016c610441565b6040516101799190611933565b60405180910390f35b34801561018e57600080fd5b506101a960048036038101906101a49190611445565b610563565b6040516101b69190611911565b60405180910390f35b3480156101cb57600080fd5b506101e660048036038101906101e1919061146e565b6105fa565b6040516101f39190611a87565b60405180910390f35b34801561020857600080fd5b5061021161062b565b60405161021e9190611a87565b60405180910390f35b610241600480360381019061023c91906114aa565b610635565b005b34801561024f57600080fd5b50610258610882565b6040516102659190611a87565b60405180910390f35b34801561027a57600080fd5b50610283610888565b6040516102909190611a87565b60405180910390f35b3480156102a557600080fd5b506102ae610938565b6040516102bb9190611896565b60405180910390f35b3480156102d057600080fd5b506102eb60048036038101906102e691906114fc565b61095c565b60405161030099989796959493929190611aa2565b60405180910390f35b34801561031557600080fd5b50610330600480360381019061032b91906114fc565b6109e4565b005b61033a610d2d565b005b34801561034857600080fd5b50610363600480360381019061035e91906114fc565b610dde565b6040516103709190611a6b565b60405180910390f35b34801561038557600080fd5b506103a0600480360381019061039b919061154e565b610ed4565b005b3480156103ae57600080fd5b506103c960048036038101906103c491906114aa565b610f81565b6040516103d69190611a87565b60405180910390f35b3480156103eb57600080fd5b506103f4610f99565b6040516104019190611a87565b60405180910390f35b34801561041657600080fd5b5061041f610fa3565b60405161042c919061194e565b60405180910390f35b60095481565b600b5481565b600080600c5460016104539190611c21565b9050807f000000000000000000000000000000000000000000000000000000000000000073ffffffffffffffffffffffffffffffffffffffff166370a08231336040518263ffffffff1660e01b81526004016104af9190611896565b60206040518083038186803b1580156104c757600080fd5b505afa1580156104db573d6000803e3d6000fd5b505050506040513d601f19601f820116820180604052508101906104ff9190611525565b101561055a5761055033827f000000000000000000000000000000000000000000000000000000000000000073ffffffffffffffffffffffffffffffffffffffff16610fc79092919063ffffffff16565b6001915050610560565b60009150505b90565b6060600e60008373ffffffffffffffffffffffffffffffffffffffff1673ffffffffffffffffffffffffffffffffffffffff1681526020019081526020016000208054806020026020016040519081016040528092919081815260200182805480156105ee57602002820191906000526020600020905b8154815260200190600101908083116105da575b50505050509050919050565b600e602052816000526040600020818154811061061657600080fd5b90600052602060002001600091509150505481565b6000600b54905090565b60405180610120016040528060095481526020013373ffffffffffffffffffffffffffffffffffffffff168152602001428152602001600a54426106799190611b9a565b8152602001600f6000841515151581526020019081526020016000205481526020013481526020016106c2600f600085151515158152602001908152602001600020543461104d565b8152602001600115158152602001821515815250600d600060095481526020019081526020016000206000820151816000015560208201518160010160006101000a81548173ffffffffffffffffffffffffffffffffffffffff021916908373ffffffffffffffffffffffffffffffffffffffff16021790555060408201518160020155606082015181600301556080820151816004015560a0820151816005015560c0820151816006015560e08201518160070160006101000a81548160ff0219169083151502179055506101008201518160070160016101000a81548160ff021916908315150217905550905050600e60003373ffffffffffffffffffffffffffffffffffffffff1673ffffffffffffffffffffffffffffffffffffffff16815260200190815260200160002060095490806001815401808255809150506001900390600052602060002001600090919091909150556009600081548092919061082d90611d4e565b919050555061087f3330347f000000000000000000000000000000000000000000000000000000000000000073ffffffffffffffffffffffffffffffffffffffff16611070909392919063ffffffff16565b50565b600a5481565b60007f000000000000000000000000000000000000000000000000000000000000000073ffffffffffffffffffffffffffffffffffffffff166370a08231306040518263ffffffff1660e01b81526004016108e39190611896565b60206040518083038186803b1580156108fb57600080fd5b505afa15801561090f573d6000803e3d6000fd5b505050506040513d601f19601f820116820180604052508101906109339190611525565b905090565b60008054906101000a900473ffffffffffffffffffffffffffffffffffffffff1681565b600d6020528060005260406000206000915090508060000154908060010160009054906101000a900473ffffffffffffffffffffffffffffffffffffffff16908060020154908060030154908060040154908060050154908060060154908060070160009054906101000a900460ff16908060070160019054906101000a900460ff16905089565b3373ffffffffffffffffffffffffffffffffffffffff16600d600083815260200190815260200160002060010160009054906101000a900473ffffffffffffffffffffffffffffffffffffffff1673ffffffffffffffffffffffffffffffffffffffff1614610a88576040517f08c379a0000000000000000000000000000000000000000000000000000000008152600401610a7f906119cb565b60405180910390fd5b60011515600d600083815260200190815260200160002060070160009054906101000a900460ff16151514610af2576040517f08c379a0000000000000000000000000000000000000000000000000000000008152600401610ae990611a0b565b60405180910390fd5b6000600d600083815260200190815260200160002060070160006101000a81548160ff021916908315150217905550600d600082815260200190815260200160002060070160019054906101000a900460ff1615610c16576000600a54600d60008481526020019081526020016000206002015442610b719190611c7b565b610b7b9190611bf0565b9050600081600d600085815260200190815260200160002060060154610ba19190611c21565b600d600085815260200190815260200160002060050154610bc29190611b9a565b9050610c0f33827f000000000000000000000000000000000000000000000000000000000000000073ffffffffffffffffffffffffffffffffffffffff16610fc79092919063ffffffff16565b5050610d2a565b600d600082815260200190815260200160002060030154421115610cc1576000600d600083815260200190815260200160002060060154600d600084815260200190815260200160002060050154610c6e9190611b9a565b9050610cbb33827f000000000000000000000000000000000000000000000000000000000000000073ffffffffffffffffffffffffffffffffffffffff16610fc79092919063ffffffff16565b50610d29565b6000600d6000838152602001908152602001600020600501549050610d2733827f000000000000000000000000000000000000000000000000000000000000000073ffffffffffffffffffffffffffffffffffffffff16610fc79092919063ffffffff16565b505b5b50565b67016345785d8a00003410610d77576040517f08c379a0000000000000000000000000000000000000000000000000000000008152600401610d6e9061198b565b60405180910390fd5b60096000815480929190610d8a90611d4e565b9190505550610ddc3330347f000000000000000000000000000000000000000000000000000000000000000073ffffffffffffffffffffffffffffffffffffffff16611070909392919063ffffffff16565b565b610de6611376565b600d600083815260200190815260200160002060405180610120016040529081600082015481526020016001820160009054906101000a900473ffffffffffffffffffffffffffffffffffffffff1673ffffffffffffffffffffffffffffffffffffffff1673ffffffffffffffffffffffffffffffffffffffff16815260200160028201548152602001600382015481526020016004820154815260200160058201548152602001600682015481526020016007820160009054906101000a900460ff161515151581526020016007820160019054906101000a900460ff1615151515815250509050919050565b3373ffffffffffffffffffffffffffffffffffffffff1660008054906101000a900473ffffffffffffffffffffffffffffffffffffffff1673ffffffffffffffffffffffffffffffffffffffff1614610f62576040517f08c379a0000000000000000000000000000000000000000000000000000000008152600401610f59906119eb565b60405180910390fd5b80600d6000848152602001908152602001600020600301819055505050565b600f6020528060005260406000206000915090505481565b6000600a54905090565b7f000000000000000000000000000000000000000000000000000000000000000081565b6110488363a9059cbb60e01b8484604051602401610fe69291906118e8565b604051602081830303815290604052907bffffffffffffffffffffffffffffffffffffffffffffffffffffffff19166020820180517bffffffffffffffffffffffffffffffffffffffffffffffffffffffff83818316178352505050506110f9565b505050565b6000612710828461105e9190611c21565b6110689190611bf0565b905092915050565b6110f3846323b872dd60e01b858585604051602401611091939291906118b1565b604051602081830303815290604052907bffffffffffffffffffffffffffffffffffffffffffffffffffffffff19166020820180517bffffffffffffffffffffffffffffffffffffffffffffffffffffffff83818316178352505050506110f9565b50505050565b600061115b826040518060400160405280602081526020017f5361666545524332303a206c6f772d6c6576656c2063616c6c206661696c65648152508573ffffffffffffffffffffffffffffffffffffffff166111c09092919063ffffffff16565b90506000815111156111bb578080602001905181019061117b91906114d3565b6111ba576040517f08c379a00000000000000000000000000000000000000000000000000000000081526004016111b190611a4b565b60405180910390fd5b5b505050565b60606111cf84846000856111d8565b90509392505050565b60608247101561121d576040517f08c379a0000000000000000000000000000000000000000000000000000000008152600401611214906119ab565b60405180910390fd5b611226856112ec565b611265576040517f08c379a000000000000000000000000000000000000000000000000000000000815260040161125c90611a2b565b60405180910390fd5b6000808673ffffffffffffffffffffffffffffffffffffffff16858760405161128e919061187f565b60006040518083038185875af1925050503d80600081146112cb576040519150601f19603f3d011682016040523d82523d6000602084013e6112d0565b606091505b50915091506112e082828661130f565b92505050949350505050565b6000808273ffffffffffffffffffffffffffffffffffffffff163b119050919050565b6060831561131f5782905061136f565b6000835111156113325782518084602001fd5b816040517f08c379a00000000000000000000000000000000000000000000000000000000081526004016113669190611969565b60405180910390fd5b9392505050565b60405180610120016040528060008152602001600073ffffffffffffffffffffffffffffffffffffffff16815260200160008152602001600081526020016000815260200160008152602001600081526020016000151581526020016000151581525090565b6000813590506113eb81611fe3565b92915050565b60008135905061140081611ffa565b92915050565b60008151905061141581611ffa565b92915050565b60008135905061142a81612011565b92915050565b60008151905061143f81612011565b92915050565b60006020828403121561145757600080fd5b6000611465848285016113dc565b91505092915050565b6000806040838503121561148157600080fd5b600061148f858286016113dc565b92505060206114a08582860161141b565b9150509250929050565b6000602082840312156114bc57600080fd5b60006114ca848285016113f1565b91505092915050565b6000602082840312156114e557600080fd5b60006114f384828501611406565b91505092915050565b60006020828403121561150e57600080fd5b600061151c8482850161141b565b91505092915050565b60006020828403121561153757600080fd5b600061154584828501611430565b91505092915050565b6000806040838503121561156157600080fd5b600061156f8582860161141b565b92505060206115808582860161141b565b9150509250929050565b60006115968383611861565b60208301905092915050565b6115ab81611caf565b82525050565b6115ba81611caf565b82525050565b60006115cb82611b3f565b6115d58185611b6d565b93506115e083611b2f565b8060005b838110156116115781516115f8888261158a565b975061160383611b60565b9250506001810190506115e4565b5085935050505092915050565b61162781611cc1565b82525050565b61163681611cc1565b82525050565b600061164782611b4a565b6116518185611b7e565b9350611661818560208601611d1b565b80840191505092915050565b61167681611cf7565b82525050565b600061168782611b55565b6116918185611b89565b93506116a1818560208601611d1b565b6116aa81611df5565b840191505092915050565b60006116c2602983611b89565b91506116cd82611e06565b604082019050919050565b60006116e5602683611b89565b91506116f082611e55565b604082019050919050565b6000611708602983611b89565b915061171382611ea4565b604082019050919050565b600061172b602283611b89565b915061173682611ef3565b604082019050919050565b600061174e601a83611b89565b915061175982611f42565b602082019050919050565b6000611771601d83611b89565b915061177c82611f6b565b602082019050919050565b6000611794602a83611b89565b915061179f82611f94565b604082019050919050565b610120820160008201516117c16000850182611861565b5060208201516117d460208501826115a2565b5060408201516117e76040850182611861565b5060608201516117fa6060850182611861565b50608082015161180d6080850182611861565b5060a082015161182060a0850182611861565b5060c082015161183360c0850182611861565b5060e082015161184660e085018261161e565b5061010082015161185b61010085018261161e565b50505050565b61186a81611ced565b82525050565b61187981611ced565b82525050565b600061188b828461163c565b915081905092915050565b60006020820190506118ab60008301846115b1565b92915050565b60006060820190506118c660008301866115b1565b6118d360208301856115b1565b6118e06040830184611870565b949350505050565b60006040820190506118fd60008301856115b1565b61190a6020830184611870565b9392505050565b6000602082019050818103600083015261192b81846115c0565b905092915050565b6000602082019050611948600083018461162d565b92915050565b6000602082019050611963600083018461166d565b92915050565b60006020820190508181036000830152611983818461167c565b905092915050565b600060208201905081810360008301526119a4816116b5565b9050919050565b600060208201905081810360008301526119c4816116d8565b9050919050565b600060208201905081810360008301526119e4816116fb565b9050919050565b60006020820190508181036000830152611a048161171e565b9050919050565b60006020820190508181036000830152611a2481611741565b9050919050565b60006020820190508181036000830152611a4481611764565b9050919050565b60006020820190508181036000830152611a6481611787565b9050919050565b600061012082019050611a8160008301846117aa565b92915050565b6000602082019050611a9c6000830184611870565b92915050565b600061012082019050611ab8600083018c611870565b611ac5602083018b6115b1565b611ad2604083018a611870565b611adf6060830189611870565b611aec6080830188611870565b611af960a0830187611870565b611b0660c0830186611870565b611b1360e083018561162d565b611b2161010083018461162d565b9a9950505050505050505050565b6000819050602082019050919050565b600081519050919050565b600081519050919050565b600081519050919050565b6000602082019050919050565b600082825260208201905092915050565b600081905092915050565b600082825260208201905092915050565b6000611ba582611ced565b9150611bb083611ced565b9250827fffffffffffffffffffffffffffffffffffffffffffffffffffffffffffffffff03821115611be557611be4611d97565b5b828201905092915050565b6000611bfb82611ced565b9150611c0683611ced565b925082611c1657611c15611dc6565b5b828204905092915050565b6000611c2c82611ced565b9150611c3783611ced565b9250817fffffffffffffffffffffffffffffffffffffffffffffffffffffffffffffffff0483118215151615611c7057611c6f611d97565b5b828202905092915050565b6000611c8682611ced565b9150611c9183611ced565b925082821015611ca457611ca3611d97565b5b828203905092915050565b6000611cba82611ccd565b9050919050565b60008115159050919050565b600073ffffffffffffffffffffffffffffffffffffffff82169050919050565b6000819050919050565b6000611d0282611d09565b9050919050565b6000611d1482611ccd565b9050919050565b60005b83811015611d39578082015181840152602081019050611d1e565b83811115611d48576000848401525b50505050565b6000611d5982611ced565b91507fffffffffffffffffffffffffffffffffffffffffffffffffffffffffffffffff821415611d8c57611d8b611d97565b5b600182019050919050565b7f4e487b7100000000000000000000000000000000000000000000000000000000600052601160045260246000fd5b7f4e487b7100000000000000000000000000000000000000000000000000000000600052601260045260246000fd5b6000601f19601f8301169050919050565b7f596f75206172652061626c6520746f206465706f73697420757020746f20302e60008201527f3039392024504c45470000000000000000000000000000000000000000000000602082015250565b7f416464726573733a20696e73756666696369656e742062616c616e636520666f60008201527f722063616c6c0000000000000000000000000000000000000000000000000000602082015250565b7f4f6e6c7920706f736974696f6e2063726561746f72206d6179206d6f6469667960008201527f20706f736974696f6e0000000000000000000000000000000000000000000000602082015250565b7f4f6e6c79206f776e6572206d6179206d6f6469667920756e6c6f636b2064617460008201527f6573000000000000000000000000000000000000000000000000000000000000602082015250565b7f506f736974696f6e20697320616c726561647920636c6f736564000000000000600082015250565b7f416464726573733a2063616c6c20746f206e6f6e2d636f6e7472616374000000600082015250565b7f5361666545524332303a204552433230206f7065726174696f6e20646964206e60008201527f6f74207375636365656400000000000000000000000000000000000000000000602082015250565b611fec81611caf565b8114611ff757600080fd5b50565b61200381611cc1565b811461200e57600080fd5b50565b61201a81611ced565b811461202557600080fd5b5056fea264697066735822122080dda0a003a5861355e0cfb1ded49a28e41efcad11a177546112317f4f257e5f64736f6c63430008010033",
          "opcodes": "PUSH1 0xA0 PUSH1 0x40 MSTORE PUSH3 0x69780 PUSH1 0xA SSTORE PUSH2 0x2710 PUSH1 0xB SSTORE PUSH8 0xDE0B6B3A7640000 PUSH1 0xC SSTORE PUSH1 0x40 MLOAD PUSH3 0x225F CODESIZE SUB DUP1 PUSH3 0x225F DUP4 CODECOPY DUP2 DUP2 ADD PUSH1 0x40 MSTORE DUP2 ADD SWAP1 PUSH3 0x42 SWAP2 SWAP1 PUSH3 0x11C JUMP JUMPDEST DUP1 PUSH20 0xFFFFFFFFFFFFFFFFFFFFFFFFFFFFFFFFFFFFFFFF AND PUSH1 0x80 DUP2 PUSH20 0xFFFFFFFFFFFFFFFFFFFFFFFFFFFFFFFFFFFFFFFF AND PUSH1 0x60 SHL DUP2 MSTORE POP POP CALLER PUSH1 0x0 DUP1 PUSH2 0x100 EXP DUP2 SLOAD DUP2 PUSH20 0xFFFFFFFFFFFFFFFFFFFFFFFFFFFFFFFFFFFFFFFF MUL NOT AND SWAP1 DUP4 PUSH20 0xFFFFFFFFFFFFFFFFFFFFFFFFFFFFFFFFFFFFFFFF AND MUL OR SWAP1 SSTORE POP PUSH1 0x0 PUSH1 0x9 DUP2 SWAP1 SSTORE POP PUSH2 0x1388 PUSH1 0xF PUSH1 0x0 PUSH1 0x1 ISZERO ISZERO ISZERO ISZERO DUP2 MSTORE PUSH1 0x20 ADD SWAP1 DUP2 MSTORE PUSH1 0x20 ADD PUSH1 0x0 KECCAK256 DUP2 SWAP1 SSTORE POP PUSH2 0x2710 PUSH1 0xF PUSH1 0x0 DUP1 ISZERO ISZERO ISZERO ISZERO DUP2 MSTORE PUSH1 0x20 ADD SWAP1 DUP2 MSTORE PUSH1 0x20 ADD PUSH1 0x0 KECCAK256 DUP2 SWAP1 SSTORE POP POP PUSH3 0x1AA JUMP JUMPDEST PUSH1 0x0 DUP2 MLOAD SWAP1 POP PUSH3 0x116 DUP2 PUSH3 0x190 JUMP JUMPDEST SWAP3 SWAP2 POP POP JUMP JUMPDEST PUSH1 0x0 PUSH1 0x20 DUP3 DUP5 SUB SLT ISZERO PUSH3 0x12F JUMPI PUSH1 0x0 DUP1 REVERT JUMPDEST PUSH1 0x0 PUSH3 0x13F DUP5 DUP3 DUP6 ADD PUSH3 0x105 JUMP JUMPDEST SWAP2 POP POP SWAP3 SWAP2 POP POP JUMP JUMPDEST PUSH1 0x0 PUSH3 0x155 DUP3 PUSH3 0x170 JUMP JUMPDEST SWAP1 POP SWAP2 SWAP1 POP JUMP JUMPDEST PUSH1 0x0 PUSH3 0x169 DUP3 PUSH3 0x148 JUMP JUMPDEST SWAP1 POP SWAP2 SWAP1 POP JUMP JUMPDEST PUSH1 0x0 PUSH20 0xFFFFFFFFFFFFFFFFFFFFFFFFFFFFFFFFFFFFFFFF DUP3 AND SWAP1 POP SWAP2 SWAP1 POP JUMP JUMPDEST PUSH3 0x19B DUP2 PUSH3 0x15C JUMP JUMPDEST DUP2 EQ PUSH3 0x1A7 JUMPI PUSH1 0x0 DUP1 REVERT JUMPDEST POP JUMP JUMPDEST PUSH1 0x80 MLOAD PUSH1 0x60 SHR PUSH2 0x205E PUSH3 0x201 PUSH1 0x0 CODECOPY PUSH1 0x0 DUP2 DUP2 PUSH2 0x458 ADD MSTORE DUP2 DUP2 PUSH2 0x50C ADD MSTORE DUP2 DUP2 PUSH2 0x83A ADD MSTORE DUP2 DUP2 PUSH2 0x88C ADD MSTORE DUP2 DUP2 PUSH2 0xBCB ADD MSTORE DUP2 DUP2 PUSH2 0xC77 ADD MSTORE DUP2 DUP2 PUSH2 0xCE3 ADD MSTORE DUP2 DUP2 PUSH2 0xD97 ADD MSTORE PUSH2 0xFA5 ADD MSTORE PUSH2 0x205E PUSH1 0x0 RETURN INVALID PUSH1 0x80 PUSH1 0x40 MSTORE PUSH1 0x4 CALLDATASIZE LT PUSH2 0x109 JUMPI PUSH1 0x0 CALLDATALOAD PUSH1 0xE0 SHR DUP1 PUSH4 0x8DA5CB5B GT PUSH2 0x95 JUMPI DUP1 PUSH4 0xB838EC86 GT PUSH2 0x64 JUMPI DUP1 PUSH4 0xB838EC86 EQ PUSH2 0x33C JUMPI DUP1 PUSH4 0xC7C9D055 EQ PUSH2 0x379 JUMPI DUP1 PUSH4 0xDD8E0AC3 EQ PUSH2 0x3A2 JUMPI DUP1 PUSH4 0xE43DB193 EQ PUSH2 0x3DF JUMPI DUP1 PUSH4 0xFC0C546A EQ PUSH2 0x40A JUMPI PUSH2 0x109 JUMP JUMPDEST DUP1 PUSH4 0x8DA5CB5B EQ PUSH2 0x299 JUMPI DUP1 PUSH4 0x99FBAB88 EQ PUSH2 0x2C4 JUMPI DUP1 PUSH4 0xA126D601 EQ PUSH2 0x309 JUMPI DUP1 PUSH4 0xAAECC546 EQ PUSH2 0x332 JUMPI PUSH2 0x109 JUMP JUMPDEST DUP1 PUSH4 0x45EAE373 GT PUSH2 0xDC JUMPI DUP1 PUSH4 0x45EAE373 EQ PUSH2 0x1BF JUMPI DUP1 PUSH4 0x5257B566 EQ PUSH2 0x1FC JUMPI DUP1 PUSH4 0x78CF87D0 EQ PUSH2 0x227 JUMPI DUP1 PUSH4 0x81A5A056 EQ PUSH2 0x243 JUMPI DUP1 PUSH4 0x8B7AFE2E EQ PUSH2 0x26E JUMPI PUSH2 0x109 JUMP JUMPDEST DUP1 PUSH4 0x1131C8CD EQ PUSH2 0x10E JUMPI DUP1 PUSH4 0x266C4180 EQ PUSH2 0x139 JUMPI DUP1 PUSH4 0x3884D635 EQ PUSH2 0x164 JUMPI DUP1 PUSH4 0x40D98A44 EQ PUSH2 0x182 JUMPI JUMPDEST PUSH1 0x0 DUP1 REVERT JUMPDEST CALLVALUE DUP1 ISZERO PUSH2 0x11A JUMPI PUSH1 0x0 DUP1 REVERT JUMPDEST POP PUSH2 0x123 PUSH2 0x435 JUMP JUMPDEST PUSH1 0x40 MLOAD PUSH2 0x130 SWAP2 SWAP1 PUSH2 0x1A87 JUMP JUMPDEST PUSH1 0x40 MLOAD DUP1 SWAP2 SUB SWAP1 RETURN JUMPDEST CALLVALUE DUP1 ISZERO PUSH2 0x145 JUMPI PUSH1 0x0 DUP1 REVERT JUMPDEST POP PUSH2 0x14E PUSH2 0x43B JUMP JUMPDEST PUSH1 0x40 MLOAD PUSH2 0x15B SWAP2 SWAP1 PUSH2 0x1A87 JUMP JUMPDEST PUSH1 0x40 MLOAD DUP1 SWAP2 SUB SWAP1 RETURN JUMPDEST PUSH2 0x16C PUSH2 0x441 JUMP JUMPDEST PUSH1 0x40 MLOAD PUSH2 0x179 SWAP2 SWAP1 PUSH2 0x1933 JUMP JUMPDEST PUSH1 0x40 MLOAD DUP1 SWAP2 SUB SWAP1 RETURN JUMPDEST CALLVALUE DUP1 ISZERO PUSH2 0x18E JUMPI PUSH1 0x0 DUP1 REVERT JUMPDEST POP PUSH2 0x1A9 PUSH1 0x4 DUP1 CALLDATASIZE SUB DUP2 ADD SWAP1 PUSH2 0x1A4 SWAP2 SWAP1 PUSH2 0x1445 JUMP JUMPDEST PUSH2 0x563 JUMP JUMPDEST PUSH1 0x40 MLOAD PUSH2 0x1B6 SWAP2 SWAP1 PUSH2 0x1911 JUMP JUMPDEST PUSH1 0x40 MLOAD DUP1 SWAP2 SUB SWAP1 RETURN JUMPDEST CALLVALUE DUP1 ISZERO PUSH2 0x1CB JUMPI PUSH1 0x0 DUP1 REVERT JUMPDEST POP PUSH2 0x1E6 PUSH1 0x4 DUP1 CALLDATASIZE SUB DUP2 ADD SWAP1 PUSH2 0x1E1 SWAP2 SWAP1 PUSH2 0x146E JUMP JUMPDEST PUSH2 0x5FA JUMP JUMPDEST PUSH1 0x40 MLOAD PUSH2 0x1F3 SWAP2 SWAP1 PUSH2 0x1A87 JUMP JUMPDEST PUSH1 0x40 MLOAD DUP1 SWAP2 SUB SWAP1 RETURN JUMPDEST CALLVALUE DUP1 ISZERO PUSH2 0x208 JUMPI PUSH1 0x0 DUP1 REVERT JUMPDEST POP PUSH2 0x211 PUSH2 0x62B JUMP JUMPDEST PUSH1 0x40 MLOAD PUSH2 0x21E SWAP2 SWAP1 PUSH2 0x1A87 JUMP JUMPDEST PUSH1 0x40 MLOAD DUP1 SWAP2 SUB SWAP1 RETURN JUMPDEST PUSH2 0x241 PUSH1 0x4 DUP1 CALLDATASIZE SUB DUP2 ADD SWAP1 PUSH2 0x23C SWAP2 SWAP1 PUSH2 0x14AA JUMP JUMPDEST PUSH2 0x635 JUMP JUMPDEST STOP JUMPDEST CALLVALUE DUP1 ISZERO PUSH2 0x24F JUMPI PUSH1 0x0 DUP1 REVERT JUMPDEST POP PUSH2 0x258 PUSH2 0x882 JUMP JUMPDEST PUSH1 0x40 MLOAD PUSH2 0x265 SWAP2 SWAP1 PUSH2 0x1A87 JUMP JUMPDEST PUSH1 0x40 MLOAD DUP1 SWAP2 SUB SWAP1 RETURN JUMPDEST CALLVALUE DUP1 ISZERO PUSH2 0x27A JUMPI PUSH1 0x0 DUP1 REVERT JUMPDEST POP PUSH2 0x283 PUSH2 0x888 JUMP JUMPDEST PUSH1 0x40 MLOAD PUSH2 0x290 SWAP2 SWAP1 PUSH2 0x1A87 JUMP JUMPDEST PUSH1 0x40 MLOAD DUP1 SWAP2 SUB SWAP1 RETURN JUMPDEST CALLVALUE DUP1 ISZERO PUSH2 0x2A5 JUMPI PUSH1 0x0 DUP1 REVERT JUMPDEST POP PUSH2 0x2AE PUSH2 0x938 JUMP JUMPDEST PUSH1 0x40 MLOAD PUSH2 0x2BB SWAP2 SWAP1 PUSH2 0x1896 JUMP JUMPDEST PUSH1 0x40 MLOAD DUP1 SWAP2 SUB SWAP1 RETURN JUMPDEST CALLVALUE DUP1 ISZERO PUSH2 0x2D0 JUMPI PUSH1 0x0 DUP1 REVERT JUMPDEST POP PUSH2 0x2EB PUSH1 0x4 DUP1 CALLDATASIZE SUB DUP2 ADD SWAP1 PUSH2 0x2E6 SWAP2 SWAP1 PUSH2 0x14FC JUMP JUMPDEST PUSH2 0x95C JUMP JUMPDEST PUSH1 0x40 MLOAD PUSH2 0x300 SWAP10 SWAP9 SWAP8 SWAP7 SWAP6 SWAP5 SWAP4 SWAP3 SWAP2 SWAP1 PUSH2 0x1AA2 JUMP JUMPDEST PUSH1 0x40 MLOAD DUP1 SWAP2 SUB SWAP1 RETURN JUMPDEST CALLVALUE DUP1 ISZERO PUSH2 0x315 JUMPI PUSH1 0x0 DUP1 REVERT JUMPDEST POP PUSH2 0x330 PUSH1 0x4 DUP1 CALLDATASIZE SUB DUP2 ADD SWAP1 PUSH2 0x32B SWAP2 SWAP1 PUSH2 0x14FC JUMP JUMPDEST PUSH2 0x9E4 JUMP JUMPDEST STOP JUMPDEST PUSH2 0x33A PUSH2 0xD2D JUMP JUMPDEST STOP JUMPDEST CALLVALUE DUP1 ISZERO PUSH2 0x348 JUMPI PUSH1 0x0 DUP1 REVERT JUMPDEST POP PUSH2 0x363 PUSH1 0x4 DUP1 CALLDATASIZE SUB DUP2 ADD SWAP1 PUSH2 0x35E SWAP2 SWAP1 PUSH2 0x14FC JUMP JUMPDEST PUSH2 0xDDE JUMP JUMPDEST PUSH1 0x40 MLOAD PUSH2 0x370 SWAP2 SWAP1 PUSH2 0x1A6B JUMP JUMPDEST PUSH1 0x40 MLOAD DUP1 SWAP2 SUB SWAP1 RETURN JUMPDEST CALLVALUE DUP1 ISZERO PUSH2 0x385 JUMPI PUSH1 0x0 DUP1 REVERT JUMPDEST POP PUSH2 0x3A0 PUSH1 0x4 DUP1 CALLDATASIZE SUB DUP2 ADD SWAP1 PUSH2 0x39B SWAP2 SWAP1 PUSH2 0x154E JUMP JUMPDEST PUSH2 0xED4 JUMP JUMPDEST STOP JUMPDEST CALLVALUE DUP1 ISZERO PUSH2 0x3AE JUMPI PUSH1 0x0 DUP1 REVERT JUMPDEST POP PUSH2 0x3C9 PUSH1 0x4 DUP1 CALLDATASIZE SUB DUP2 ADD SWAP1 PUSH2 0x3C4 SWAP2 SWAP1 PUSH2 0x14AA JUMP JUMPDEST PUSH2 0xF81 JUMP JUMPDEST PUSH1 0x40 MLOAD PUSH2 0x3D6 SWAP2 SWAP1 PUSH2 0x1A87 JUMP JUMPDEST PUSH1 0x40 MLOAD DUP1 SWAP2 SUB SWAP1 RETURN JUMPDEST CALLVALUE DUP1 ISZERO PUSH2 0x3EB JUMPI PUSH1 0x0 DUP1 REVERT JUMPDEST POP PUSH2 0x3F4 PUSH2 0xF99 JUMP JUMPDEST PUSH1 0x40 MLOAD PUSH2 0x401 SWAP2 SWAP1 PUSH2 0x1A87 JUMP JUMPDEST PUSH1 0x40 MLOAD DUP1 SWAP2 SUB SWAP1 RETURN JUMPDEST CALLVALUE DUP1 ISZERO PUSH2 0x416 JUMPI PUSH1 0x0 DUP1 REVERT JUMPDEST POP PUSH2 0x41F PUSH2 0xFA3 JUMP JUMPDEST PUSH1 0x40 MLOAD PUSH2 0x42C SWAP2 SWAP1 PUSH2 0x194E JUMP JUMPDEST PUSH1 0x40 MLOAD DUP1 SWAP2 SUB SWAP1 RETURN JUMPDEST PUSH1 0x9 SLOAD DUP2 JUMP JUMPDEST PUSH1 0xB SLOAD DUP2 JUMP JUMPDEST PUSH1 0x0 DUP1 PUSH1 0xC SLOAD PUSH1 0x1 PUSH2 0x453 SWAP2 SWAP1 PUSH2 0x1C21 JUMP JUMPDEST SWAP1 POP DUP1 PUSH32 0x0 PUSH20 0xFFFFFFFFFFFFFFFFFFFFFFFFFFFFFFFFFFFFFFFF AND PUSH4 0x70A08231 CALLER PUSH1 0x40 MLOAD DUP3 PUSH4 0xFFFFFFFF AND PUSH1 0xE0 SHL DUP2 MSTORE PUSH1 0x4 ADD PUSH2 0x4AF SWAP2 SWAP1 PUSH2 0x1896 JUMP JUMPDEST PUSH1 0x20 PUSH1 0x40 MLOAD DUP1 DUP4 SUB DUP2 DUP7 DUP1 EXTCODESIZE ISZERO DUP1 ISZERO PUSH2 0x4C7 JUMPI PUSH1 0x0 DUP1 REVERT JUMPDEST POP GAS STATICCALL ISZERO DUP1 ISZERO PUSH2 0x4DB JUMPI RETURNDATASIZE PUSH1 0x0 DUP1 RETURNDATACOPY RETURNDATASIZE PUSH1 0x0 REVERT JUMPDEST POP POP POP POP PUSH1 0x40 MLOAD RETURNDATASIZE PUSH1 0x1F NOT PUSH1 0x1F DUP3 ADD AND DUP3 ADD DUP1 PUSH1 0x40 MSTORE POP DUP2 ADD SWAP1 PUSH2 0x4FF SWAP2 SWAP1 PUSH2 0x1525 JUMP JUMPDEST LT ISZERO PUSH2 0x55A JUMPI PUSH2 0x550 CALLER DUP3 PUSH32 0x0 PUSH20 0xFFFFFFFFFFFFFFFFFFFFFFFFFFFFFFFFFFFFFFFF AND PUSH2 0xFC7 SWAP1 SWAP3 SWAP2 SWAP1 PUSH4 0xFFFFFFFF AND JUMP JUMPDEST PUSH1 0x1 SWAP2 POP POP PUSH2 0x560 JUMP JUMPDEST PUSH1 0x0 SWAP2 POP POP JUMPDEST SWAP1 JUMP JUMPDEST PUSH1 0x60 PUSH1 0xE PUSH1 0x0 DUP4 PUSH20 0xFFFFFFFFFFFFFFFFFFFFFFFFFFFFFFFFFFFFFFFF AND PUSH20 0xFFFFFFFFFFFFFFFFFFFFFFFFFFFFFFFFFFFFFFFF AND DUP2 MSTORE PUSH1 0x20 ADD SWAP1 DUP2 MSTORE PUSH1 0x20 ADD PUSH1 0x0 KECCAK256 DUP1 SLOAD DUP1 PUSH1 0x20 MUL PUSH1 0x20 ADD PUSH1 0x40 MLOAD SWAP1 DUP2 ADD PUSH1 0x40 MSTORE DUP1 SWAP3 SWAP2 SWAP1 DUP2 DUP2 MSTORE PUSH1 0x20 ADD DUP3 DUP1 SLOAD DUP1 ISZERO PUSH2 0x5EE JUMPI PUSH1 0x20 MUL DUP3 ADD SWAP2 SWAP1 PUSH1 0x0 MSTORE PUSH1 0x20 PUSH1 0x0 KECCAK256 SWAP1 JUMPDEST DUP2 SLOAD DUP2 MSTORE PUSH1 0x20 ADD SWAP1 PUSH1 0x1 ADD SWAP1 DUP1 DUP4 GT PUSH2 0x5DA JUMPI JUMPDEST POP POP POP POP POP SWAP1 POP SWAP2 SWAP1 POP JUMP JUMPDEST PUSH1 0xE PUSH1 0x20 MSTORE DUP2 PUSH1 0x0 MSTORE PUSH1 0x40 PUSH1 0x0 KECCAK256 DUP2 DUP2 SLOAD DUP2 LT PUSH2 0x616 JUMPI PUSH1 0x0 DUP1 REVERT JUMPDEST SWAP1 PUSH1 0x0 MSTORE PUSH1 0x20 PUSH1 0x0 KECCAK256 ADD PUSH1 0x0 SWAP2 POP SWAP2 POP POP SLOAD DUP2 JUMP JUMPDEST PUSH1 0x0 PUSH1 0xB SLOAD SWAP1 POP SWAP1 JUMP JUMPDEST PUSH1 0x40 MLOAD DUP1 PUSH2 0x120 ADD PUSH1 0x40 MSTORE DUP1 PUSH1 0x9 SLOAD DUP2 MSTORE PUSH1 0x20 ADD CALLER PUSH20 0xFFFFFFFFFFFFFFFFFFFFFFFFFFFFFFFFFFFFFFFF AND DUP2 MSTORE PUSH1 0x20 ADD TIMESTAMP DUP2 MSTORE PUSH1 0x20 ADD PUSH1 0xA SLOAD TIMESTAMP PUSH2 0x679 SWAP2 SWAP1 PUSH2 0x1B9A JUMP JUMPDEST DUP2 MSTORE PUSH1 0x20 ADD PUSH1 0xF PUSH1 0x0 DUP5 ISZERO ISZERO ISZERO ISZERO DUP2 MSTORE PUSH1 0x20 ADD SWAP1 DUP2 MSTORE PUSH1 0x20 ADD PUSH1 0x0 KECCAK256 SLOAD DUP2 MSTORE PUSH1 0x20 ADD CALLVALUE DUP2 MSTORE PUSH1 0x20 ADD PUSH2 0x6C2 PUSH1 0xF PUSH1 0x0 DUP6 ISZERO ISZERO ISZERO ISZERO DUP2 MSTORE PUSH1 0x20 ADD SWAP1 DUP2 MSTORE PUSH1 0x20 ADD PUSH1 0x0 KECCAK256 SLOAD CALLVALUE PUSH2 0x104D JUMP JUMPDEST DUP2 MSTORE PUSH1 0x20 ADD PUSH1 0x1 ISZERO ISZERO DUP2 MSTORE PUSH1 0x20 ADD DUP3 ISZERO ISZERO DUP2 MSTORE POP PUSH1 0xD PUSH1 0x0 PUSH1 0x9 SLOAD DUP2 MSTORE PUSH1 0x20 ADD SWAP1 DUP2 MSTORE PUSH1 0x20 ADD PUSH1 0x0 KECCAK256 PUSH1 0x0 DUP3 ADD MLOAD DUP2 PUSH1 0x0 ADD SSTORE PUSH1 0x20 DUP3 ADD MLOAD DUP2 PUSH1 0x1 ADD PUSH1 0x0 PUSH2 0x100 EXP DUP2 SLOAD DUP2 PUSH20 0xFFFFFFFFFFFFFFFFFFFFFFFFFFFFFFFFFFFFFFFF MUL NOT AND SWAP1 DUP4 PUSH20 0xFFFFFFFFFFFFFFFFFFFFFFFFFFFFFFFFFFFFFFFF AND MUL OR SWAP1 SSTORE POP PUSH1 0x40 DUP3 ADD MLOAD DUP2 PUSH1 0x2 ADD SSTORE PUSH1 0x60 DUP3 ADD MLOAD DUP2 PUSH1 0x3 ADD SSTORE PUSH1 0x80 DUP3 ADD MLOAD DUP2 PUSH1 0x4 ADD SSTORE PUSH1 0xA0 DUP3 ADD MLOAD DUP2 PUSH1 0x5 ADD SSTORE PUSH1 0xC0 DUP3 ADD MLOAD DUP2 PUSH1 0x6 ADD SSTORE PUSH1 0xE0 DUP3 ADD MLOAD DUP2 PUSH1 0x7 ADD PUSH1 0x0 PUSH2 0x100 EXP DUP2 SLOAD DUP2 PUSH1 0xFF MUL NOT AND SWAP1 DUP4 ISZERO ISZERO MUL OR SWAP1 SSTORE POP PUSH2 0x100 DUP3 ADD MLOAD DUP2 PUSH1 0x7 ADD PUSH1 0x1 PUSH2 0x100 EXP DUP2 SLOAD DUP2 PUSH1 0xFF MUL NOT AND SWAP1 DUP4 ISZERO ISZERO MUL OR SWAP1 SSTORE POP SWAP1 POP POP PUSH1 0xE PUSH1 0x0 CALLER PUSH20 0xFFFFFFFFFFFFFFFFFFFFFFFFFFFFFFFFFFFFFFFF AND PUSH20 0xFFFFFFFFFFFFFFFFFFFFFFFFFFFFFFFFFFFFFFFF AND DUP2 MSTORE PUSH1 0x20 ADD SWAP1 DUP2 MSTORE PUSH1 0x20 ADD PUSH1 0x0 KECCAK256 PUSH1 0x9 SLOAD SWAP1 DUP1 PUSH1 0x1 DUP2 SLOAD ADD DUP1 DUP3 SSTORE DUP1 SWAP2 POP POP PUSH1 0x1 SWAP1 SUB SWAP1 PUSH1 0x0 MSTORE PUSH1 0x20 PUSH1 0x0 KECCAK256 ADD PUSH1 0x0 SWAP1 SWAP2 SWAP1 SWAP2 SWAP1 SWAP2 POP SSTORE PUSH1 0x9 PUSH1 0x0 DUP2 SLOAD DUP1 SWAP3 SWAP2 SWAP1 PUSH2 0x82D SWAP1 PUSH2 0x1D4E JUMP JUMPDEST SWAP2 SWAP1 POP SSTORE POP PUSH2 0x87F CALLER ADDRESS CALLVALUE PUSH32 0x0 PUSH20 0xFFFFFFFFFFFFFFFFFFFFFFFFFFFFFFFFFFFFFFFF AND PUSH2 0x1070 SWAP1 SWAP4 SWAP3 SWAP2 SWAP1 PUSH4 0xFFFFFFFF AND JUMP JUMPDEST POP JUMP JUMPDEST PUSH1 0xA SLOAD DUP2 JUMP JUMPDEST PUSH1 0x0 PUSH32 0x0 PUSH20 0xFFFFFFFFFFFFFFFFFFFFFFFFFFFFFFFFFFFFFFFF AND PUSH4 0x70A08231 ADDRESS PUSH1 0x40 MLOAD DUP3 PUSH4 0xFFFFFFFF AND PUSH1 0xE0 SHL DUP2 MSTORE PUSH1 0x4 ADD PUSH2 0x8E3 SWAP2 SWAP1 PUSH2 0x1896 JUMP JUMPDEST PUSH1 0x20 PUSH1 0x40 MLOAD DUP1 DUP4 SUB DUP2 DUP7 DUP1 EXTCODESIZE ISZERO DUP1 ISZERO PUSH2 0x8FB JUMPI PUSH1 0x0 DUP1 REVERT JUMPDEST POP GAS STATICCALL ISZERO DUP1 ISZERO PUSH2 0x90F JUMPI RETURNDATASIZE PUSH1 0x0 DUP1 RETURNDATACOPY RETURNDATASIZE PUSH1 0x0 REVERT JUMPDEST POP POP POP POP PUSH1 0x40 MLOAD RETURNDATASIZE PUSH1 0x1F NOT PUSH1 0x1F DUP3 ADD AND DUP3 ADD DUP1 PUSH1 0x40 MSTORE POP DUP2 ADD SWAP1 PUSH2 0x933 SWAP2 SWAP1 PUSH2 0x1525 JUMP JUMPDEST SWAP1 POP SWAP1 JUMP JUMPDEST PUSH1 0x0 DUP1 SLOAD SWAP1 PUSH2 0x100 EXP SWAP1 DIV PUSH20 0xFFFFFFFFFFFFFFFFFFFFFFFFFFFFFFFFFFFFFFFF AND DUP2 JUMP JUMPDEST PUSH1 0xD PUSH1 0x20 MSTORE DUP1 PUSH1 0x0 MSTORE PUSH1 0x40 PUSH1 0x0 KECCAK256 PUSH1 0x0 SWAP2 POP SWAP1 POP DUP1 PUSH1 0x0 ADD SLOAD SWAP1 DUP1 PUSH1 0x1 ADD PUSH1 0x0 SWAP1 SLOAD SWAP1 PUSH2 0x100 EXP SWAP1 DIV PUSH20 0xFFFFFFFFFFFFFFFFFFFFFFFFFFFFFFFFFFFFFFFF AND SWAP1 DUP1 PUSH1 0x2 ADD SLOAD SWAP1 DUP1 PUSH1 0x3 ADD SLOAD SWAP1 DUP1 PUSH1 0x4 ADD SLOAD SWAP1 DUP1 PUSH1 0x5 ADD SLOAD SWAP1 DUP1 PUSH1 0x6 ADD SLOAD SWAP1 DUP1 PUSH1 0x7 ADD PUSH1 0x0 SWAP1 SLOAD SWAP1 PUSH2 0x100 EXP SWAP1 DIV PUSH1 0xFF AND SWAP1 DUP1 PUSH1 0x7 ADD PUSH1 0x1 SWAP1 SLOAD SWAP1 PUSH2 0x100 EXP SWAP1 DIV PUSH1 0xFF AND SWAP1 POP DUP10 JUMP JUMPDEST CALLER PUSH20 0xFFFFFFFFFFFFFFFFFFFFFFFFFFFFFFFFFFFFFFFF AND PUSH1 0xD PUSH1 0x0 DUP4 DUP2 MSTORE PUSH1 0x20 ADD SWAP1 DUP2 MSTORE PUSH1 0x20 ADD PUSH1 0x0 KECCAK256 PUSH1 0x1 ADD PUSH1 0x0 SWAP1 SLOAD SWAP1 PUSH2 0x100 EXP SWAP1 DIV PUSH20 0xFFFFFFFFFFFFFFFFFFFFFFFFFFFFFFFFFFFFFFFF AND PUSH20 0xFFFFFFFFFFFFFFFFFFFFFFFFFFFFFFFFFFFFFFFF AND EQ PUSH2 0xA88 JUMPI PUSH1 0x40 MLOAD PUSH32 0x8C379A000000000000000000000000000000000000000000000000000000000 DUP2 MSTORE PUSH1 0x4 ADD PUSH2 0xA7F SWAP1 PUSH2 0x19CB JUMP JUMPDEST PUSH1 0x40 MLOAD DUP1 SWAP2 SUB SWAP1 REVERT JUMPDEST PUSH1 0x1 ISZERO ISZERO PUSH1 0xD PUSH1 0x0 DUP4 DUP2 MSTORE PUSH1 0x20 ADD SWAP1 DUP2 MSTORE PUSH1 0x20 ADD PUSH1 0x0 KECCAK256 PUSH1 0x7 ADD PUSH1 0x0 SWAP1 SLOAD SWAP1 PUSH2 0x100 EXP SWAP1 DIV PUSH1 0xFF AND ISZERO ISZERO EQ PUSH2 0xAF2 JUMPI PUSH1 0x40 MLOAD PUSH32 0x8C379A000000000000000000000000000000000000000000000000000000000 DUP2 MSTORE PUSH1 0x4 ADD PUSH2 0xAE9 SWAP1 PUSH2 0x1A0B JUMP JUMPDEST PUSH1 0x40 MLOAD DUP1 SWAP2 SUB SWAP1 REVERT JUMPDEST PUSH1 0x0 PUSH1 0xD PUSH1 0x0 DUP4 DUP2 MSTORE PUSH1 0x20 ADD SWAP1 DUP2 MSTORE PUSH1 0x20 ADD PUSH1 0x0 KECCAK256 PUSH1 0x7 ADD PUSH1 0x0 PUSH2 0x100 EXP DUP2 SLOAD DUP2 PUSH1 0xFF MUL NOT AND SWAP1 DUP4 ISZERO ISZERO MUL OR SWAP1 SSTORE POP PUSH1 0xD PUSH1 0x0 DUP3 DUP2 MSTORE PUSH1 0x20 ADD SWAP1 DUP2 MSTORE PUSH1 0x20 ADD PUSH1 0x0 KECCAK256 PUSH1 0x7 ADD PUSH1 0x1 SWAP1 SLOAD SWAP1 PUSH2 0x100 EXP SWAP1 DIV PUSH1 0xFF AND ISZERO PUSH2 0xC16 JUMPI PUSH1 0x0 PUSH1 0xA SLOAD PUSH1 0xD PUSH1 0x0 DUP5 DUP2 MSTORE PUSH1 0x20 ADD SWAP1 DUP2 MSTORE PUSH1 0x20 ADD PUSH1 0x0 KECCAK256 PUSH1 0x2 ADD SLOAD TIMESTAMP PUSH2 0xB71 SWAP2 SWAP1 PUSH2 0x1C7B JUMP JUMPDEST PUSH2 0xB7B SWAP2 SWAP1 PUSH2 0x1BF0 JUMP JUMPDEST SWAP1 POP PUSH1 0x0 DUP2 PUSH1 0xD PUSH1 0x0 DUP6 DUP2 MSTORE PUSH1 0x20 ADD SWAP1 DUP2 MSTORE PUSH1 0x20 ADD PUSH1 0x0 KECCAK256 PUSH1 0x6 ADD SLOAD PUSH2 0xBA1 SWAP2 SWAP1 PUSH2 0x1C21 JUMP JUMPDEST PUSH1 0xD PUSH1 0x0 DUP6 DUP2 MSTORE PUSH1 0x20 ADD SWAP1 DUP2 MSTORE PUSH1 0x20 ADD PUSH1 0x0 KECCAK256 PUSH1 0x5 ADD SLOAD PUSH2 0xBC2 SWAP2 SWAP1 PUSH2 0x1B9A JUMP JUMPDEST SWAP1 POP PUSH2 0xC0F CALLER DUP3 PUSH32 0x0 PUSH20 0xFFFFFFFFFFFFFFFFFFFFFFFFFFFFFFFFFFFFFFFF AND PUSH2 0xFC7 SWAP1 SWAP3 SWAP2 SWAP1 PUSH4 0xFFFFFFFF AND JUMP JUMPDEST POP POP PUSH2 0xD2A JUMP JUMPDEST PUSH1 0xD PUSH1 0x0 DUP3 DUP2 MSTORE PUSH1 0x20 ADD SWAP1 DUP2 MSTORE PUSH1 0x20 ADD PUSH1 0x0 KECCAK256 PUSH1 0x3 ADD SLOAD TIMESTAMP GT ISZERO PUSH2 0xCC1 JUMPI PUSH1 0x0 PUSH1 0xD PUSH1 0x0 DUP4 DUP2 MSTORE PUSH1 0x20 ADD SWAP1 DUP2 MSTORE PUSH1 0x20 ADD PUSH1 0x0 KECCAK256 PUSH1 0x6 ADD SLOAD PUSH1 0xD PUSH1 0x0 DUP5 DUP2 MSTORE PUSH1 0x20 ADD SWAP1 DUP2 MSTORE PUSH1 0x20 ADD PUSH1 0x0 KECCAK256 PUSH1 0x5 ADD SLOAD PUSH2 0xC6E SWAP2 SWAP1 PUSH2 0x1B9A JUMP JUMPDEST SWAP1 POP PUSH2 0xCBB CALLER DUP3 PUSH32 0x0 PUSH20 0xFFFFFFFFFFFFFFFFFFFFFFFFFFFFFFFFFFFFFFFF AND PUSH2 0xFC7 SWAP1 SWAP3 SWAP2 SWAP1 PUSH4 0xFFFFFFFF AND JUMP JUMPDEST POP PUSH2 0xD29 JUMP JUMPDEST PUSH1 0x0 PUSH1 0xD PUSH1 0x0 DUP4 DUP2 MSTORE PUSH1 0x20 ADD SWAP1 DUP2 MSTORE PUSH1 0x20 ADD PUSH1 0x0 KECCAK256 PUSH1 0x5 ADD SLOAD SWAP1 POP PUSH2 0xD27 CALLER DUP3 PUSH32 0x0 PUSH20 0xFFFFFFFFFFFFFFFFFFFFFFFFFFFFFFFFFFFFFFFF AND PUSH2 0xFC7 SWAP1 SWAP3 SWAP2 SWAP1 PUSH4 0xFFFFFFFF AND JUMP JUMPDEST POP JUMPDEST JUMPDEST POP JUMP JUMPDEST PUSH8 0x16345785D8A0000 CALLVALUE LT PUSH2 0xD77 JUMPI PUSH1 0x40 MLOAD PUSH32 0x8C379A000000000000000000000000000000000000000000000000000000000 DUP2 MSTORE PUSH1 0x4 ADD PUSH2 0xD6E SWAP1 PUSH2 0x198B JUMP JUMPDEST PUSH1 0x40 MLOAD DUP1 SWAP2 SUB SWAP1 REVERT JUMPDEST PUSH1 0x9 PUSH1 0x0 DUP2 SLOAD DUP1 SWAP3 SWAP2 SWAP1 PUSH2 0xD8A SWAP1 PUSH2 0x1D4E JUMP JUMPDEST SWAP2 SWAP1 POP SSTORE POP PUSH2 0xDDC CALLER ADDRESS CALLVALUE PUSH32 0x0 PUSH20 0xFFFFFFFFFFFFFFFFFFFFFFFFFFFFFFFFFFFFFFFF AND PUSH2 0x1070 SWAP1 SWAP4 SWAP3 SWAP2 SWAP1 PUSH4 0xFFFFFFFF AND JUMP JUMPDEST JUMP JUMPDEST PUSH2 0xDE6 PUSH2 0x1376 JUMP JUMPDEST PUSH1 0xD PUSH1 0x0 DUP4 DUP2 MSTORE PUSH1 0x20 ADD SWAP1 DUP2 MSTORE PUSH1 0x20 ADD PUSH1 0x0 KECCAK256 PUSH1 0x40 MLOAD DUP1 PUSH2 0x120 ADD PUSH1 0x40 MSTORE SWAP1 DUP2 PUSH1 0x0 DUP3 ADD SLOAD DUP2 MSTORE PUSH1 0x20 ADD PUSH1 0x1 DUP3 ADD PUSH1 0x0 SWAP1 SLOAD SWAP1 PUSH2 0x100 EXP SWAP1 DIV PUSH20 0xFFFFFFFFFFFFFFFFFFFFFFFFFFFFFFFFFFFFFFFF AND PUSH20 0xFFFFFFFFFFFFFFFFFFFFFFFFFFFFFFFFFFFFFFFF AND PUSH20 0xFFFFFFFFFFFFFFFFFFFFFFFFFFFFFFFFFFFFFFFF AND DUP2 MSTORE PUSH1 0x20 ADD PUSH1 0x2 DUP3 ADD SLOAD DUP2 MSTORE PUSH1 0x20 ADD PUSH1 0x3 DUP3 ADD SLOAD DUP2 MSTORE PUSH1 0x20 ADD PUSH1 0x4 DUP3 ADD SLOAD DUP2 MSTORE PUSH1 0x20 ADD PUSH1 0x5 DUP3 ADD SLOAD DUP2 MSTORE PUSH1 0x20 ADD PUSH1 0x6 DUP3 ADD SLOAD DUP2 MSTORE PUSH1 0x20 ADD PUSH1 0x7 DUP3 ADD PUSH1 0x0 SWAP1 SLOAD SWAP1 PUSH2 0x100 EXP SWAP1 DIV PUSH1 0xFF AND ISZERO ISZERO ISZERO ISZERO DUP2 MSTORE PUSH1 0x20 ADD PUSH1 0x7 DUP3 ADD PUSH1 0x1 SWAP1 SLOAD SWAP1 PUSH2 0x100 EXP SWAP1 DIV PUSH1 0xFF AND ISZERO ISZERO ISZERO ISZERO DUP2 MSTORE POP POP SWAP1 POP SWAP2 SWAP1 POP JUMP JUMPDEST CALLER PUSH20 0xFFFFFFFFFFFFFFFFFFFFFFFFFFFFFFFFFFFFFFFF AND PUSH1 0x0 DUP1 SLOAD SWAP1 PUSH2 0x100 EXP SWAP1 DIV PUSH20 0xFFFFFFFFFFFFFFFFFFFFFFFFFFFFFFFFFFFFFFFF AND PUSH20 0xFFFFFFFFFFFFFFFFFFFFFFFFFFFFFFFFFFFFFFFF AND EQ PUSH2 0xF62 JUMPI PUSH1 0x40 MLOAD PUSH32 0x8C379A000000000000000000000000000000000000000000000000000000000 DUP2 MSTORE PUSH1 0x4 ADD PUSH2 0xF59 SWAP1 PUSH2 0x19EB JUMP JUMPDEST PUSH1 0x40 MLOAD DUP1 SWAP2 SUB SWAP1 REVERT JUMPDEST DUP1 PUSH1 0xD PUSH1 0x0 DUP5 DUP2 MSTORE PUSH1 0x20 ADD SWAP1 DUP2 MSTORE PUSH1 0x20 ADD PUSH1 0x0 KECCAK256 PUSH1 0x3 ADD DUP2 SWAP1 SSTORE POP POP POP JUMP JUMPDEST PUSH1 0xF PUSH1 0x20 MSTORE DUP1 PUSH1 0x0 MSTORE PUSH1 0x40 PUSH1 0x0 KECCAK256 PUSH1 0x0 SWAP2 POP SWAP1 POP SLOAD DUP2 JUMP JUMPDEST PUSH1 0x0 PUSH1 0xA SLOAD SWAP1 POP SWAP1 JUMP JUMPDEST PUSH32 0x0 DUP2 JUMP JUMPDEST PUSH2 0x1048 DUP4 PUSH4 0xA9059CBB PUSH1 0xE0 SHL DUP5 DUP5 PUSH1 0x40 MLOAD PUSH1 0x24 ADD PUSH2 0xFE6 SWAP3 SWAP2 SWAP1 PUSH2 0x18E8 JUMP JUMPDEST PUSH1 0x40 MLOAD PUSH1 0x20 DUP2 DUP4 SUB SUB DUP2 MSTORE SWAP1 PUSH1 0x40 MSTORE SWAP1 PUSH28 0xFFFFFFFFFFFFFFFFFFFFFFFFFFFFFFFFFFFFFFFFFFFFFFFFFFFFFFFF NOT AND PUSH1 0x20 DUP3 ADD DUP1 MLOAD PUSH28 0xFFFFFFFFFFFFFFFFFFFFFFFFFFFFFFFFFFFFFFFFFFFFFFFFFFFFFFFF DUP4 DUP2 DUP4 AND OR DUP4 MSTORE POP POP POP POP PUSH2 0x10F9 JUMP JUMPDEST POP POP POP JUMP JUMPDEST PUSH1 0x0 PUSH2 0x2710 DUP3 DUP5 PUSH2 0x105E SWAP2 SWAP1 PUSH2 0x1C21 JUMP JUMPDEST PUSH2 0x1068 SWAP2 SWAP1 PUSH2 0x1BF0 JUMP JUMPDEST SWAP1 POP SWAP3 SWAP2 POP POP JUMP JUMPDEST PUSH2 0x10F3 DUP5 PUSH4 0x23B872DD PUSH1 0xE0 SHL DUP6 DUP6 DUP6 PUSH1 0x40 MLOAD PUSH1 0x24 ADD PUSH2 0x1091 SWAP4 SWAP3 SWAP2 SWAP1 PUSH2 0x18B1 JUMP JUMPDEST PUSH1 0x40 MLOAD PUSH1 0x20 DUP2 DUP4 SUB SUB DUP2 MSTORE SWAP1 PUSH1 0x40 MSTORE SWAP1 PUSH28 0xFFFFFFFFFFFFFFFFFFFFFFFFFFFFFFFFFFFFFFFFFFFFFFFFFFFFFFFF NOT AND PUSH1 0x20 DUP3 ADD DUP1 MLOAD PUSH28 0xFFFFFFFFFFFFFFFFFFFFFFFFFFFFFFFFFFFFFFFFFFFFFFFFFFFFFFFF DUP4 DUP2 DUP4 AND OR DUP4 MSTORE POP POP POP POP PUSH2 0x10F9 JUMP JUMPDEST POP POP POP POP JUMP JUMPDEST PUSH1 0x0 PUSH2 0x115B DUP3 PUSH1 0x40 MLOAD DUP1 PUSH1 0x40 ADD PUSH1 0x40 MSTORE DUP1 PUSH1 0x20 DUP2 MSTORE PUSH1 0x20 ADD PUSH32 0x5361666545524332303A206C6F772D6C6576656C2063616C6C206661696C6564 DUP2 MSTORE POP DUP6 PUSH20 0xFFFFFFFFFFFFFFFFFFFFFFFFFFFFFFFFFFFFFFFF AND PUSH2 0x11C0 SWAP1 SWAP3 SWAP2 SWAP1 PUSH4 0xFFFFFFFF AND JUMP JUMPDEST SWAP1 POP PUSH1 0x0 DUP2 MLOAD GT ISZERO PUSH2 0x11BB JUMPI DUP1 DUP1 PUSH1 0x20 ADD SWAP1 MLOAD DUP2 ADD SWAP1 PUSH2 0x117B SWAP2 SWAP1 PUSH2 0x14D3 JUMP JUMPDEST PUSH2 0x11BA JUMPI PUSH1 0x40 MLOAD PUSH32 0x8C379A000000000000000000000000000000000000000000000000000000000 DUP2 MSTORE PUSH1 0x4 ADD PUSH2 0x11B1 SWAP1 PUSH2 0x1A4B JUMP JUMPDEST PUSH1 0x40 MLOAD DUP1 SWAP2 SUB SWAP1 REVERT JUMPDEST JUMPDEST POP POP POP JUMP JUMPDEST PUSH1 0x60 PUSH2 0x11CF DUP5 DUP5 PUSH1 0x0 DUP6 PUSH2 0x11D8 JUMP JUMPDEST SWAP1 POP SWAP4 SWAP3 POP POP POP JUMP JUMPDEST PUSH1 0x60 DUP3 SELFBALANCE LT ISZERO PUSH2 0x121D JUMPI PUSH1 0x40 MLOAD PUSH32 0x8C379A000000000000000000000000000000000000000000000000000000000 DUP2 MSTORE PUSH1 0x4 ADD PUSH2 0x1214 SWAP1 PUSH2 0x19AB JUMP JUMPDEST PUSH1 0x40 MLOAD DUP1 SWAP2 SUB SWAP1 REVERT JUMPDEST PUSH2 0x1226 DUP6 PUSH2 0x12EC JUMP JUMPDEST PUSH2 0x1265 JUMPI PUSH1 0x40 MLOAD PUSH32 0x8C379A000000000000000000000000000000000000000000000000000000000 DUP2 MSTORE PUSH1 0x4 ADD PUSH2 0x125C SWAP1 PUSH2 0x1A2B JUMP JUMPDEST PUSH1 0x40 MLOAD DUP1 SWAP2 SUB SWAP1 REVERT JUMPDEST PUSH1 0x0 DUP1 DUP7 PUSH20 0xFFFFFFFFFFFFFFFFFFFFFFFFFFFFFFFFFFFFFFFF AND DUP6 DUP8 PUSH1 0x40 MLOAD PUSH2 0x128E SWAP2 SWAP1 PUSH2 0x187F JUMP JUMPDEST PUSH1 0x0 PUSH1 0x40 MLOAD DUP1 DUP4 SUB DUP2 DUP6 DUP8 GAS CALL SWAP3 POP POP POP RETURNDATASIZE DUP1 PUSH1 0x0 DUP2 EQ PUSH2 0x12CB JUMPI PUSH1 0x40 MLOAD SWAP2 POP PUSH1 0x1F NOT PUSH1 0x3F RETURNDATASIZE ADD AND DUP3 ADD PUSH1 0x40 MSTORE RETURNDATASIZE DUP3 MSTORE RETURNDATASIZE PUSH1 0x0 PUSH1 0x20 DUP5 ADD RETURNDATACOPY PUSH2 0x12D0 JUMP JUMPDEST PUSH1 0x60 SWAP2 POP JUMPDEST POP SWAP2 POP SWAP2 POP PUSH2 0x12E0 DUP3 DUP3 DUP7 PUSH2 0x130F JUMP JUMPDEST SWAP3 POP POP POP SWAP5 SWAP4 POP POP POP POP JUMP JUMPDEST PUSH1 0x0 DUP1 DUP3 PUSH20 0xFFFFFFFFFFFFFFFFFFFFFFFFFFFFFFFFFFFFFFFF AND EXTCODESIZE GT SWAP1 POP SWAP2 SWAP1 POP JUMP JUMPDEST PUSH1 0x60 DUP4 ISZERO PUSH2 0x131F JUMPI DUP3 SWAP1 POP PUSH2 0x136F JUMP JUMPDEST PUSH1 0x0 DUP4 MLOAD GT ISZERO PUSH2 0x1332 JUMPI DUP3 MLOAD DUP1 DUP5 PUSH1 0x20 ADD REVERT JUMPDEST DUP2 PUSH1 0x40 MLOAD PUSH32 0x8C379A000000000000000000000000000000000000000000000000000000000 DUP2 MSTORE PUSH1 0x4 ADD PUSH2 0x1366 SWAP2 SWAP1 PUSH2 0x1969 JUMP JUMPDEST PUSH1 0x40 MLOAD DUP1 SWAP2 SUB SWAP1 REVERT JUMPDEST SWAP4 SWAP3 POP POP POP JUMP JUMPDEST PUSH1 0x40 MLOAD DUP1 PUSH2 0x120 ADD PUSH1 0x40 MSTORE DUP1 PUSH1 0x0 DUP2 MSTORE PUSH1 0x20 ADD PUSH1 0x0 PUSH20 0xFFFFFFFFFFFFFFFFFFFFFFFFFFFFFFFFFFFFFFFF AND DUP2 MSTORE PUSH1 0x20 ADD PUSH1 0x0 DUP2 MSTORE PUSH1 0x20 ADD PUSH1 0x0 DUP2 MSTORE PUSH1 0x20 ADD PUSH1 0x0 DUP2 MSTORE PUSH1 0x20 ADD PUSH1 0x0 DUP2 MSTORE PUSH1 0x20 ADD PUSH1 0x0 DUP2 MSTORE PUSH1 0x20 ADD PUSH1 0x0 ISZERO ISZERO DUP2 MSTORE PUSH1 0x20 ADD PUSH1 0x0 ISZERO ISZERO DUP2 MSTORE POP SWAP1 JUMP JUMPDEST PUSH1 0x0 DUP2 CALLDATALOAD SWAP1 POP PUSH2 0x13EB DUP2 PUSH2 0x1FE3 JUMP JUMPDEST SWAP3 SWAP2 POP POP JUMP JUMPDEST PUSH1 0x0 DUP2 CALLDATALOAD SWAP1 POP PUSH2 0x1400 DUP2 PUSH2 0x1FFA JUMP JUMPDEST SWAP3 SWAP2 POP POP JUMP JUMPDEST PUSH1 0x0 DUP2 MLOAD SWAP1 POP PUSH2 0x1415 DUP2 PUSH2 0x1FFA JUMP JUMPDEST SWAP3 SWAP2 POP POP JUMP JUMPDEST PUSH1 0x0 DUP2 CALLDATALOAD SWAP1 POP PUSH2 0x142A DUP2 PUSH2 0x2011 JUMP JUMPDEST SWAP3 SWAP2 POP POP JUMP JUMPDEST PUSH1 0x0 DUP2 MLOAD SWAP1 POP PUSH2 0x143F DUP2 PUSH2 0x2011 JUMP JUMPDEST SWAP3 SWAP2 POP POP JUMP JUMPDEST PUSH1 0x0 PUSH1 0x20 DUP3 DUP5 SUB SLT ISZERO PUSH2 0x1457 JUMPI PUSH1 0x0 DUP1 REVERT JUMPDEST PUSH1 0x0 PUSH2 0x1465 DUP5 DUP3 DUP6 ADD PUSH2 0x13DC JUMP JUMPDEST SWAP2 POP POP SWAP3 SWAP2 POP POP JUMP JUMPDEST PUSH1 0x0 DUP1 PUSH1 0x40 DUP4 DUP6 SUB SLT ISZERO PUSH2 0x1481 JUMPI PUSH1 0x0 DUP1 REVERT JUMPDEST PUSH1 0x0 PUSH2 0x148F DUP6 DUP3 DUP7 ADD PUSH2 0x13DC JUMP JUMPDEST SWAP3 POP POP PUSH1 0x20 PUSH2 0x14A0 DUP6 DUP3 DUP7 ADD PUSH2 0x141B JUMP JUMPDEST SWAP2 POP POP SWAP3 POP SWAP3 SWAP1 POP JUMP JUMPDEST PUSH1 0x0 PUSH1 0x20 DUP3 DUP5 SUB SLT ISZERO PUSH2 0x14BC JUMPI PUSH1 0x0 DUP1 REVERT JUMPDEST PUSH1 0x0 PUSH2 0x14CA DUP5 DUP3 DUP6 ADD PUSH2 0x13F1 JUMP JUMPDEST SWAP2 POP POP SWAP3 SWAP2 POP POP JUMP JUMPDEST PUSH1 0x0 PUSH1 0x20 DUP3 DUP5 SUB SLT ISZERO PUSH2 0x14E5 JUMPI PUSH1 0x0 DUP1 REVERT JUMPDEST PUSH1 0x0 PUSH2 0x14F3 DUP5 DUP3 DUP6 ADD PUSH2 0x1406 JUMP JUMPDEST SWAP2 POP POP SWAP3 SWAP2 POP POP JUMP JUMPDEST PUSH1 0x0 PUSH1 0x20 DUP3 DUP5 SUB SLT ISZERO PUSH2 0x150E JUMPI PUSH1 0x0 DUP1 REVERT JUMPDEST PUSH1 0x0 PUSH2 0x151C DUP5 DUP3 DUP6 ADD PUSH2 0x141B JUMP JUMPDEST SWAP2 POP POP SWAP3 SWAP2 POP POP JUMP JUMPDEST PUSH1 0x0 PUSH1 0x20 DUP3 DUP5 SUB SLT ISZERO PUSH2 0x1537 JUMPI PUSH1 0x0 DUP1 REVERT JUMPDEST PUSH1 0x0 PUSH2 0x1545 DUP5 DUP3 DUP6 ADD PUSH2 0x1430 JUMP JUMPDEST SWAP2 POP POP SWAP3 SWAP2 POP POP JUMP JUMPDEST PUSH1 0x0 DUP1 PUSH1 0x40 DUP4 DUP6 SUB SLT ISZERO PUSH2 0x1561 JUMPI PUSH1 0x0 DUP1 REVERT JUMPDEST PUSH1 0x0 PUSH2 0x156F DUP6 DUP3 DUP7 ADD PUSH2 0x141B JUMP JUMPDEST SWAP3 POP POP PUSH1 0x20 PUSH2 0x1580 DUP6 DUP3 DUP7 ADD PUSH2 0x141B JUMP JUMPDEST SWAP2 POP POP SWAP3 POP SWAP3 SWAP1 POP JUMP JUMPDEST PUSH1 0x0 PUSH2 0x1596 DUP4 DUP4 PUSH2 0x1861 JUMP JUMPDEST PUSH1 0x20 DUP4 ADD SWAP1 POP SWAP3 SWAP2 POP POP JUMP JUMPDEST PUSH2 0x15AB DUP2 PUSH2 0x1CAF JUMP JUMPDEST DUP3 MSTORE POP POP JUMP JUMPDEST PUSH2 0x15BA DUP2 PUSH2 0x1CAF JUMP JUMPDEST DUP3 MSTORE POP POP JUMP JUMPDEST PUSH1 0x0 PUSH2 0x15CB DUP3 PUSH2 0x1B3F JUMP JUMPDEST PUSH2 0x15D5 DUP2 DUP6 PUSH2 0x1B6D JUMP JUMPDEST SWAP4 POP PUSH2 0x15E0 DUP4 PUSH2 0x1B2F JUMP JUMPDEST DUP1 PUSH1 0x0 JUMPDEST DUP4 DUP2 LT ISZERO PUSH2 0x1611 JUMPI DUP2 MLOAD PUSH2 0x15F8 DUP9 DUP3 PUSH2 0x158A JUMP JUMPDEST SWAP8 POP PUSH2 0x1603 DUP4 PUSH2 0x1B60 JUMP JUMPDEST SWAP3 POP POP PUSH1 0x1 DUP2 ADD SWAP1 POP PUSH2 0x15E4 JUMP JUMPDEST POP DUP6 SWAP4 POP POP POP POP SWAP3 SWAP2 POP POP JUMP JUMPDEST PUSH2 0x1627 DUP2 PUSH2 0x1CC1 JUMP JUMPDEST DUP3 MSTORE POP POP JUMP JUMPDEST PUSH2 0x1636 DUP2 PUSH2 0x1CC1 JUMP JUMPDEST DUP3 MSTORE POP POP JUMP JUMPDEST PUSH1 0x0 PUSH2 0x1647 DUP3 PUSH2 0x1B4A JUMP JUMPDEST PUSH2 0x1651 DUP2 DUP6 PUSH2 0x1B7E JUMP JUMPDEST SWAP4 POP PUSH2 0x1661 DUP2 DUP6 PUSH1 0x20 DUP7 ADD PUSH2 0x1D1B JUMP JUMPDEST DUP1 DUP5 ADD SWAP2 POP POP SWAP3 SWAP2 POP POP JUMP JUMPDEST PUSH2 0x1676 DUP2 PUSH2 0x1CF7 JUMP JUMPDEST DUP3 MSTORE POP POP JUMP JUMPDEST PUSH1 0x0 PUSH2 0x1687 DUP3 PUSH2 0x1B55 JUMP JUMPDEST PUSH2 0x1691 DUP2 DUP6 PUSH2 0x1B89 JUMP JUMPDEST SWAP4 POP PUSH2 0x16A1 DUP2 DUP6 PUSH1 0x20 DUP7 ADD PUSH2 0x1D1B JUMP JUMPDEST PUSH2 0x16AA DUP2 PUSH2 0x1DF5 JUMP JUMPDEST DUP5 ADD SWAP2 POP POP SWAP3 SWAP2 POP POP JUMP JUMPDEST PUSH1 0x0 PUSH2 0x16C2 PUSH1 0x29 DUP4 PUSH2 0x1B89 JUMP JUMPDEST SWAP2 POP PUSH2 0x16CD DUP3 PUSH2 0x1E06 JUMP JUMPDEST PUSH1 0x40 DUP3 ADD SWAP1 POP SWAP2 SWAP1 POP JUMP JUMPDEST PUSH1 0x0 PUSH2 0x16E5 PUSH1 0x26 DUP4 PUSH2 0x1B89 JUMP JUMPDEST SWAP2 POP PUSH2 0x16F0 DUP3 PUSH2 0x1E55 JUMP JUMPDEST PUSH1 0x40 DUP3 ADD SWAP1 POP SWAP2 SWAP1 POP JUMP JUMPDEST PUSH1 0x0 PUSH2 0x1708 PUSH1 0x29 DUP4 PUSH2 0x1B89 JUMP JUMPDEST SWAP2 POP PUSH2 0x1713 DUP3 PUSH2 0x1EA4 JUMP JUMPDEST PUSH1 0x40 DUP3 ADD SWAP1 POP SWAP2 SWAP1 POP JUMP JUMPDEST PUSH1 0x0 PUSH2 0x172B PUSH1 0x22 DUP4 PUSH2 0x1B89 JUMP JUMPDEST SWAP2 POP PUSH2 0x1736 DUP3 PUSH2 0x1EF3 JUMP JUMPDEST PUSH1 0x40 DUP3 ADD SWAP1 POP SWAP2 SWAP1 POP JUMP JUMPDEST PUSH1 0x0 PUSH2 0x174E PUSH1 0x1A DUP4 PUSH2 0x1B89 JUMP JUMPDEST SWAP2 POP PUSH2 0x1759 DUP3 PUSH2 0x1F42 JUMP JUMPDEST PUSH1 0x20 DUP3 ADD SWAP1 POP SWAP2 SWAP1 POP JUMP JUMPDEST PUSH1 0x0 PUSH2 0x1771 PUSH1 0x1D DUP4 PUSH2 0x1B89 JUMP JUMPDEST SWAP2 POP PUSH2 0x177C DUP3 PUSH2 0x1F6B JUMP JUMPDEST PUSH1 0x20 DUP3 ADD SWAP1 POP SWAP2 SWAP1 POP JUMP JUMPDEST PUSH1 0x0 PUSH2 0x1794 PUSH1 0x2A DUP4 PUSH2 0x1B89 JUMP JUMPDEST SWAP2 POP PUSH2 0x179F DUP3 PUSH2 0x1F94 JUMP JUMPDEST PUSH1 0x40 DUP3 ADD SWAP1 POP SWAP2 SWAP1 POP JUMP JUMPDEST PUSH2 0x120 DUP3 ADD PUSH1 0x0 DUP3 ADD MLOAD PUSH2 0x17C1 PUSH1 0x0 DUP6 ADD DUP3 PUSH2 0x1861 JUMP JUMPDEST POP PUSH1 0x20 DUP3 ADD MLOAD PUSH2 0x17D4 PUSH1 0x20 DUP6 ADD DUP3 PUSH2 0x15A2 JUMP JUMPDEST POP PUSH1 0x40 DUP3 ADD MLOAD PUSH2 0x17E7 PUSH1 0x40 DUP6 ADD DUP3 PUSH2 0x1861 JUMP JUMPDEST POP PUSH1 0x60 DUP3 ADD MLOAD PUSH2 0x17FA PUSH1 0x60 DUP6 ADD DUP3 PUSH2 0x1861 JUMP JUMPDEST POP PUSH1 0x80 DUP3 ADD MLOAD PUSH2 0x180D PUSH1 0x80 DUP6 ADD DUP3 PUSH2 0x1861 JUMP JUMPDEST POP PUSH1 0xA0 DUP3 ADD MLOAD PUSH2 0x1820 PUSH1 0xA0 DUP6 ADD DUP3 PUSH2 0x1861 JUMP JUMPDEST POP PUSH1 0xC0 DUP3 ADD MLOAD PUSH2 0x1833 PUSH1 0xC0 DUP6 ADD DUP3 PUSH2 0x1861 JUMP JUMPDEST POP PUSH1 0xE0 DUP3 ADD MLOAD PUSH2 0x1846 PUSH1 0xE0 DUP6 ADD DUP3 PUSH2 0x161E JUMP JUMPDEST POP PUSH2 0x100 DUP3 ADD MLOAD PUSH2 0x185B PUSH2 0x100 DUP6 ADD DUP3 PUSH2 0x161E JUMP JUMPDEST POP POP POP POP JUMP JUMPDEST PUSH2 0x186A DUP2 PUSH2 0x1CED JUMP JUMPDEST DUP3 MSTORE POP POP JUMP JUMPDEST PUSH2 0x1879 DUP2 PUSH2 0x1CED JUMP JUMPDEST DUP3 MSTORE POP POP JUMP JUMPDEST PUSH1 0x0 PUSH2 0x188B DUP3 DUP5 PUSH2 0x163C JUMP JUMPDEST SWAP2 POP DUP2 SWAP1 POP SWAP3 SWAP2 POP POP JUMP JUMPDEST PUSH1 0x0 PUSH1 0x20 DUP3 ADD SWAP1 POP PUSH2 0x18AB PUSH1 0x0 DUP4 ADD DUP5 PUSH2 0x15B1 JUMP JUMPDEST SWAP3 SWAP2 POP POP JUMP JUMPDEST PUSH1 0x0 PUSH1 0x60 DUP3 ADD SWAP1 POP PUSH2 0x18C6 PUSH1 0x0 DUP4 ADD DUP7 PUSH2 0x15B1 JUMP JUMPDEST PUSH2 0x18D3 PUSH1 0x20 DUP4 ADD DUP6 PUSH2 0x15B1 JUMP JUMPDEST PUSH2 0x18E0 PUSH1 0x40 DUP4 ADD DUP5 PUSH2 0x1870 JUMP JUMPDEST SWAP5 SWAP4 POP POP POP POP JUMP JUMPDEST PUSH1 0x0 PUSH1 0x40 DUP3 ADD SWAP1 POP PUSH2 0x18FD PUSH1 0x0 DUP4 ADD DUP6 PUSH2 0x15B1 JUMP JUMPDEST PUSH2 0x190A PUSH1 0x20 DUP4 ADD DUP5 PUSH2 0x1870 JUMP JUMPDEST SWAP4 SWAP3 POP POP POP JUMP JUMPDEST PUSH1 0x0 PUSH1 0x20 DUP3 ADD SWAP1 POP DUP2 DUP2 SUB PUSH1 0x0 DUP4 ADD MSTORE PUSH2 0x192B DUP2 DUP5 PUSH2 0x15C0 JUMP JUMPDEST SWAP1 POP SWAP3 SWAP2 POP POP JUMP JUMPDEST PUSH1 0x0 PUSH1 0x20 DUP3 ADD SWAP1 POP PUSH2 0x1948 PUSH1 0x0 DUP4 ADD DUP5 PUSH2 0x162D JUMP JUMPDEST SWAP3 SWAP2 POP POP JUMP JUMPDEST PUSH1 0x0 PUSH1 0x20 DUP3 ADD SWAP1 POP PUSH2 0x1963 PUSH1 0x0 DUP4 ADD DUP5 PUSH2 0x166D JUMP JUMPDEST SWAP3 SWAP2 POP POP JUMP JUMPDEST PUSH1 0x0 PUSH1 0x20 DUP3 ADD SWAP1 POP DUP2 DUP2 SUB PUSH1 0x0 DUP4 ADD MSTORE PUSH2 0x1983 DUP2 DUP5 PUSH2 0x167C JUMP JUMPDEST SWAP1 POP SWAP3 SWAP2 POP POP JUMP JUMPDEST PUSH1 0x0 PUSH1 0x20 DUP3 ADD SWAP1 POP DUP2 DUP2 SUB PUSH1 0x0 DUP4 ADD MSTORE PUSH2 0x19A4 DUP2 PUSH2 0x16B5 JUMP JUMPDEST SWAP1 POP SWAP2 SWAP1 POP JUMP JUMPDEST PUSH1 0x0 PUSH1 0x20 DUP3 ADD SWAP1 POP DUP2 DUP2 SUB PUSH1 0x0 DUP4 ADD MSTORE PUSH2 0x19C4 DUP2 PUSH2 0x16D8 JUMP JUMPDEST SWAP1 POP SWAP2 SWAP1 POP JUMP JUMPDEST PUSH1 0x0 PUSH1 0x20 DUP3 ADD SWAP1 POP DUP2 DUP2 SUB PUSH1 0x0 DUP4 ADD MSTORE PUSH2 0x19E4 DUP2 PUSH2 0x16FB JUMP JUMPDEST SWAP1 POP SWAP2 SWAP1 POP JUMP JUMPDEST PUSH1 0x0 PUSH1 0x20 DUP3 ADD SWAP1 POP DUP2 DUP2 SUB PUSH1 0x0 DUP4 ADD MSTORE PUSH2 0x1A04 DUP2 PUSH2 0x171E JUMP JUMPDEST SWAP1 POP SWAP2 SWAP1 POP JUMP JUMPDEST PUSH1 0x0 PUSH1 0x20 DUP3 ADD SWAP1 POP DUP2 DUP2 SUB PUSH1 0x0 DUP4 ADD MSTORE PUSH2 0x1A24 DUP2 PUSH2 0x1741 JUMP JUMPDEST SWAP1 POP SWAP2 SWAP1 POP JUMP JUMPDEST PUSH1 0x0 PUSH1 0x20 DUP3 ADD SWAP1 POP DUP2 DUP2 SUB PUSH1 0x0 DUP4 ADD MSTORE PUSH2 0x1A44 DUP2 PUSH2 0x1764 JUMP JUMPDEST SWAP1 POP SWAP2 SWAP1 POP JUMP JUMPDEST PUSH1 0x0 PUSH1 0x20 DUP3 ADD SWAP1 POP DUP2 DUP2 SUB PUSH1 0x0 DUP4 ADD MSTORE PUSH2 0x1A64 DUP2 PUSH2 0x1787 JUMP JUMPDEST SWAP1 POP SWAP2 SWAP1 POP JUMP JUMPDEST PUSH1 0x0 PUSH2 0x120 DUP3 ADD SWAP1 POP PUSH2 0x1A81 PUSH1 0x0 DUP4 ADD DUP5 PUSH2 0x17AA JUMP JUMPDEST SWAP3 SWAP2 POP POP JUMP JUMPDEST PUSH1 0x0 PUSH1 0x20 DUP3 ADD SWAP1 POP PUSH2 0x1A9C PUSH1 0x0 DUP4 ADD DUP5 PUSH2 0x1870 JUMP JUMPDEST SWAP3 SWAP2 POP POP JUMP JUMPDEST PUSH1 0x0 PUSH2 0x120 DUP3 ADD SWAP1 POP PUSH2 0x1AB8 PUSH1 0x0 DUP4 ADD DUP13 PUSH2 0x1870 JUMP JUMPDEST PUSH2 0x1AC5 PUSH1 0x20 DUP4 ADD DUP12 PUSH2 0x15B1 JUMP JUMPDEST PUSH2 0x1AD2 PUSH1 0x40 DUP4 ADD DUP11 PUSH2 0x1870 JUMP JUMPDEST PUSH2 0x1ADF PUSH1 0x60 DUP4 ADD DUP10 PUSH2 0x1870 JUMP JUMPDEST PUSH2 0x1AEC PUSH1 0x80 DUP4 ADD DUP9 PUSH2 0x1870 JUMP JUMPDEST PUSH2 0x1AF9 PUSH1 0xA0 DUP4 ADD DUP8 PUSH2 0x1870 JUMP JUMPDEST PUSH2 0x1B06 PUSH1 0xC0 DUP4 ADD DUP7 PUSH2 0x1870 JUMP JUMPDEST PUSH2 0x1B13 PUSH1 0xE0 DUP4 ADD DUP6 PUSH2 0x162D JUMP JUMPDEST PUSH2 0x1B21 PUSH2 0x100 DUP4 ADD DUP5 PUSH2 0x162D JUMP JUMPDEST SWAP11 SWAP10 POP POP POP POP POP POP POP POP POP POP JUMP JUMPDEST PUSH1 0x0 DUP2 SWAP1 POP PUSH1 0x20 DUP3 ADD SWAP1 POP SWAP2 SWAP1 POP JUMP JUMPDEST PUSH1 0x0 DUP2 MLOAD SWAP1 POP SWAP2 SWAP1 POP JUMP JUMPDEST PUSH1 0x0 DUP2 MLOAD SWAP1 POP SWAP2 SWAP1 POP JUMP JUMPDEST PUSH1 0x0 DUP2 MLOAD SWAP1 POP SWAP2 SWAP1 POP JUMP JUMPDEST PUSH1 0x0 PUSH1 0x20 DUP3 ADD SWAP1 POP SWAP2 SWAP1 POP JUMP JUMPDEST PUSH1 0x0 DUP3 DUP3 MSTORE PUSH1 0x20 DUP3 ADD SWAP1 POP SWAP3 SWAP2 POP POP JUMP JUMPDEST PUSH1 0x0 DUP2 SWAP1 POP SWAP3 SWAP2 POP POP JUMP JUMPDEST PUSH1 0x0 DUP3 DUP3 MSTORE PUSH1 0x20 DUP3 ADD SWAP1 POP SWAP3 SWAP2 POP POP JUMP JUMPDEST PUSH1 0x0 PUSH2 0x1BA5 DUP3 PUSH2 0x1CED JUMP JUMPDEST SWAP2 POP PUSH2 0x1BB0 DUP4 PUSH2 0x1CED JUMP JUMPDEST SWAP3 POP DUP3 PUSH32 0xFFFFFFFFFFFFFFFFFFFFFFFFFFFFFFFFFFFFFFFFFFFFFFFFFFFFFFFFFFFFFFFF SUB DUP3 GT ISZERO PUSH2 0x1BE5 JUMPI PUSH2 0x1BE4 PUSH2 0x1D97 JUMP JUMPDEST JUMPDEST DUP3 DUP3 ADD SWAP1 POP SWAP3 SWAP2 POP POP JUMP JUMPDEST PUSH1 0x0 PUSH2 0x1BFB DUP3 PUSH2 0x1CED JUMP JUMPDEST SWAP2 POP PUSH2 0x1C06 DUP4 PUSH2 0x1CED JUMP JUMPDEST SWAP3 POP DUP3 PUSH2 0x1C16 JUMPI PUSH2 0x1C15 PUSH2 0x1DC6 JUMP JUMPDEST JUMPDEST DUP3 DUP3 DIV SWAP1 POP SWAP3 SWAP2 POP POP JUMP JUMPDEST PUSH1 0x0 PUSH2 0x1C2C DUP3 PUSH2 0x1CED JUMP JUMPDEST SWAP2 POP PUSH2 0x1C37 DUP4 PUSH2 0x1CED JUMP JUMPDEST SWAP3 POP DUP2 PUSH32 0xFFFFFFFFFFFFFFFFFFFFFFFFFFFFFFFFFFFFFFFFFFFFFFFFFFFFFFFFFFFFFFFF DIV DUP4 GT DUP3 ISZERO ISZERO AND ISZERO PUSH2 0x1C70 JUMPI PUSH2 0x1C6F PUSH2 0x1D97 JUMP JUMPDEST JUMPDEST DUP3 DUP3 MUL SWAP1 POP SWAP3 SWAP2 POP POP JUMP JUMPDEST PUSH1 0x0 PUSH2 0x1C86 DUP3 PUSH2 0x1CED JUMP JUMPDEST SWAP2 POP PUSH2 0x1C91 DUP4 PUSH2 0x1CED JUMP JUMPDEST SWAP3 POP DUP3 DUP3 LT ISZERO PUSH2 0x1CA4 JUMPI PUSH2 0x1CA3 PUSH2 0x1D97 JUMP JUMPDEST JUMPDEST DUP3 DUP3 SUB SWAP1 POP SWAP3 SWAP2 POP POP JUMP JUMPDEST PUSH1 0x0 PUSH2 0x1CBA DUP3 PUSH2 0x1CCD JUMP JUMPDEST SWAP1 POP SWAP2 SWAP1 POP JUMP JUMPDEST PUSH1 0x0 DUP2 ISZERO ISZERO SWAP1 POP SWAP2 SWAP1 POP JUMP JUMPDEST PUSH1 0x0 PUSH20 0xFFFFFFFFFFFFFFFFFFFFFFFFFFFFFFFFFFFFFFFF DUP3 AND SWAP1 POP SWAP2 SWAP1 POP JUMP JUMPDEST PUSH1 0x0 DUP2 SWAP1 POP SWAP2 SWAP1 POP JUMP JUMPDEST PUSH1 0x0 PUSH2 0x1D02 DUP3 PUSH2 0x1D09 JUMP JUMPDEST SWAP1 POP SWAP2 SWAP1 POP JUMP JUMPDEST PUSH1 0x0 PUSH2 0x1D14 DUP3 PUSH2 0x1CCD JUMP JUMPDEST SWAP1 POP SWAP2 SWAP1 POP JUMP JUMPDEST PUSH1 0x0 JUMPDEST DUP4 DUP2 LT ISZERO PUSH2 0x1D39 JUMPI DUP1 DUP3 ADD MLOAD DUP2 DUP5 ADD MSTORE PUSH1 0x20 DUP2 ADD SWAP1 POP PUSH2 0x1D1E JUMP JUMPDEST DUP4 DUP2 GT ISZERO PUSH2 0x1D48 JUMPI PUSH1 0x0 DUP5 DUP5 ADD MSTORE JUMPDEST POP POP POP POP JUMP JUMPDEST PUSH1 0x0 PUSH2 0x1D59 DUP3 PUSH2 0x1CED JUMP JUMPDEST SWAP2 POP PUSH32 0xFFFFFFFFFFFFFFFFFFFFFFFFFFFFFFFFFFFFFFFFFFFFFFFFFFFFFFFFFFFFFFFF DUP3 EQ ISZERO PUSH2 0x1D8C JUMPI PUSH2 0x1D8B PUSH2 0x1D97 JUMP JUMPDEST JUMPDEST PUSH1 0x1 DUP3 ADD SWAP1 POP SWAP2 SWAP1 POP JUMP JUMPDEST PUSH32 0x4E487B7100000000000000000000000000000000000000000000000000000000 PUSH1 0x0 MSTORE PUSH1 0x11 PUSH1 0x4 MSTORE PUSH1 0x24 PUSH1 0x0 REVERT JUMPDEST PUSH32 0x4E487B7100000000000000000000000000000000000000000000000000000000 PUSH1 0x0 MSTORE PUSH1 0x12 PUSH1 0x4 MSTORE PUSH1 0x24 PUSH1 0x0 REVERT JUMPDEST PUSH1 0x0 PUSH1 0x1F NOT PUSH1 0x1F DUP4 ADD AND SWAP1 POP SWAP2 SWAP1 POP JUMP JUMPDEST PUSH32 0x596F75206172652061626C6520746F206465706F73697420757020746F20302E PUSH1 0x0 DUP3 ADD MSTORE PUSH32 0x3039392024504C45470000000000000000000000000000000000000000000000 PUSH1 0x20 DUP3 ADD MSTORE POP JUMP JUMPDEST PUSH32 0x416464726573733A20696E73756666696369656E742062616C616E636520666F PUSH1 0x0 DUP3 ADD MSTORE PUSH32 0x722063616C6C0000000000000000000000000000000000000000000000000000 PUSH1 0x20 DUP3 ADD MSTORE POP JUMP JUMPDEST PUSH32 0x4F6E6C7920706F736974696F6E2063726561746F72206D6179206D6F64696679 PUSH1 0x0 DUP3 ADD MSTORE PUSH32 0x20706F736974696F6E0000000000000000000000000000000000000000000000 PUSH1 0x20 DUP3 ADD MSTORE POP JUMP JUMPDEST PUSH32 0x4F6E6C79206F776E6572206D6179206D6F6469667920756E6C6F636B20646174 PUSH1 0x0 DUP3 ADD MSTORE PUSH32 0x6573000000000000000000000000000000000000000000000000000000000000 PUSH1 0x20 DUP3 ADD MSTORE POP JUMP JUMPDEST PUSH32 0x506F736974696F6E20697320616C726561647920636C6F736564000000000000 PUSH1 0x0 DUP3 ADD MSTORE POP JUMP JUMPDEST PUSH32 0x416464726573733A2063616C6C20746F206E6F6E2D636F6E7472616374000000 PUSH1 0x0 DUP3 ADD MSTORE POP JUMP JUMPDEST PUSH32 0x5361666545524332303A204552433230206F7065726174696F6E20646964206E PUSH1 0x0 DUP3 ADD MSTORE PUSH32 0x6F74207375636365656400000000000000000000000000000000000000000000 PUSH1 0x20 DUP3 ADD MSTORE POP JUMP JUMPDEST PUSH2 0x1FEC DUP2 PUSH2 0x1CAF JUMP JUMPDEST DUP2 EQ PUSH2 0x1FF7 JUMPI PUSH1 0x0 DUP1 REVERT JUMPDEST POP JUMP JUMPDEST PUSH2 0x2003 DUP2 PUSH2 0x1CC1 JUMP JUMPDEST DUP2 EQ PUSH2 0x200E JUMPI PUSH1 0x0 DUP1 REVERT JUMPDEST POP JUMP JUMPDEST PUSH2 0x201A DUP2 PUSH2 0x1CED JUMP JUMPDEST DUP2 EQ PUSH2 0x2025 JUMPI PUSH1 0x0 DUP1 REVERT JUMPDEST POP JUMP INVALID LOG2 PUSH5 0x6970667358 0x22 SLT KECCAK256 DUP1 0xDD LOG0 LOG0 SUB 0xA5 DUP7 SGT SSTORE 0xE0 0xCF 0xB1 0xDE 0xD4 SWAP11 0x28 0xE4 0x1E 0xFC 0xAD GT LOG1 PUSH24 0x546112317F4F257E5F64736F6C6343000801003300000000 "
        },
        "methodIdentifiers": {
          "_percentInterest()": "266c4180",
          "airdrop()": "3884d635",
          "changeUnlockDate(uint256,uint256)": "c7c9d055",
          "closePosition(uint256)": "a126d601",
          "contractBalance()": "8b7afe2e",
          "currentPositionId()": "1131c8cd",
          "fixedStakingUnlockPeriod()": "81a5a056",
          "getInterestRate()": "5257b566",
          "getLockPeriod()": "e43db193",
          "getPositionById(uint256)": "b838ec86",
          "getPositionIdsForAddress(address)": "40d98a44",
          "interest(bool)": "dd8e0ac3",
          "owner()": "8da5cb5b",
          "positionIdsByAddress(address,uint256)": "45eae373",
          "positions(uint256)": "99fbab88",
          "stakePleg(bool)": "78cf87d0",
          "stakePlegRugPull()": "aaecc546",
          "token()": "fc0c546a"
        }
      }
    }
  }
}