{
  "_format": "hh-sol-artifact-1",
  "contractName": "Staking",
  "sourceName": "contracts/staking.sol",
  "abi": [
    {
      "inputs": [],
      "stateMutability": "payable",
      "type": "constructor"
    },
    {
      "inputs": [
        {
          "internalType": "uint256",
          "name": "positionId",
          "type": "uint256"
        },
        {
          "internalType": "uint256",
          "name": "newUnlockDate",
          "type": "uint256"
        }
      ],
      "name": "changeUnlockDate",
      "outputs": [],
      "stateMutability": "nonpayable",
      "type": "function"
    },
    {
      "inputs": [
        {
          "internalType": "uint256",
          "name": "positionId",
          "type": "uint256"
        }
      ],
      "name": "closePosition",
      "outputs": [],
      "stateMutability": "nonpayable",
      "type": "function"
    },
    {
      "inputs": [],
      "name": "currentPositionId",
      "outputs": [
        {
          "internalType": "uint256",
          "name": "",
          "type": "uint256"
        }
      ],
      "stateMutability": "view",
      "type": "function"
    },
    {
      "inputs": [
        {
          "internalType": "uint256",
          "name": "numDays",
          "type": "uint256"
        }
      ],
      "name": "getInterestRate",
      "outputs": [
        {
          "internalType": "uint256",
          "name": "",
          "type": "uint256"
        }
      ],
      "stateMutability": "view",
      "type": "function"
    },
    {
      "inputs": [],
      "name": "getLockPeriod",
      "outputs": [
        {
          "internalType": "uint256[]",
          "name": "",
          "type": "uint256[]"
        }
      ],
      "stateMutability": "view",
      "type": "function"
    },
    {
      "inputs": [
        {
          "internalType": "uint256",
          "name": "positionId",
          "type": "uint256"
        }
      ],
      "name": "getPositionById",
      "outputs": [
        {
          "components": [
            {
              "internalType": "uint256",
              "name": "positionId",
              "type": "uint256"
            },
            {
              "internalType": "address",
              "name": "walletAddress",
              "type": "address"
            },
            {
              "internalType": "uint256",
              "name": "createdDate",
              "type": "uint256"
            },
            {
              "internalType": "uint256",
              "name": "unlockDate",
              "type": "uint256"
            },
            {
              "internalType": "uint256",
              "name": "percentInterest",
              "type": "uint256"
            },
            {
              "internalType": "uint256",
              "name": "plegWeiStaked",
              "type": "uint256"
            },
            {
              "internalType": "uint256",
              "name": "plegInterest",
              "type": "uint256"
            },
            {
              "internalType": "bool",
              "name": "open",
              "type": "bool"
            }
          ],
          "internalType": "struct Staking.Position",
          "name": "",
          "type": "tuple"
        }
      ],
      "stateMutability": "view",
      "type": "function"
    },
    {
      "inputs": [
        {
          "internalType": "address",
          "name": "walletAddress",
          "type": "address"
        }
      ],
      "name": "getPositionIdsForAddress",
      "outputs": [
        {
          "internalType": "uint256[]",
          "name": "",
          "type": "uint256[]"
        }
      ],
      "stateMutability": "view",
      "type": "function"
    },
    {
      "inputs": [
        {
          "internalType": "uint256",
          "name": "",
          "type": "uint256"
        }
      ],
      "name": "lockPeriods",
      "outputs": [
        {
          "internalType": "uint256",
          "name": "",
          "type": "uint256"
        }
      ],
      "stateMutability": "view",
      "type": "function"
    },
    {
      "inputs": [
        {
          "internalType": "uint256",
          "name": "numDays",
          "type": "uint256"
        },
        {
          "internalType": "uint256",
          "name": "basisPoints",
          "type": "uint256"
        }
      ],
      "name": "modifyLockPeriods",
      "outputs": [],
      "stateMutability": "nonpayable",
      "type": "function"
    },
    {
      "inputs": [],
      "name": "owner",
      "outputs": [
        {
          "internalType": "address",
          "name": "",
          "type": "address"
        }
      ],
      "stateMutability": "view",
      "type": "function"
    },
    {
      "inputs": [
        {
          "internalType": "address",
          "name": "",
          "type": "address"
        },
        {
          "internalType": "uint256",
          "name": "",
          "type": "uint256"
        }
      ],
      "name": "positionIdsByAddress",
      "outputs": [
        {
          "internalType": "uint256",
          "name": "",
          "type": "uint256"
        }
      ],
      "stateMutability": "view",
      "type": "function"
    },
    {
      "inputs": [
        {
          "internalType": "uint256",
          "name": "",
          "type": "uint256"
        }
      ],
      "name": "positions",
      "outputs": [
        {
          "internalType": "uint256",
          "name": "positionId",
          "type": "uint256"
        },
        {
          "internalType": "address",
          "name": "walletAddress",
          "type": "address"
        },
        {
          "internalType": "uint256",
          "name": "createdDate",
          "type": "uint256"
        },
        {
          "internalType": "uint256",
          "name": "unlockDate",
          "type": "uint256"
        },
        {
          "internalType": "uint256",
          "name": "percentInterest",
          "type": "uint256"
        },
        {
          "internalType": "uint256",
          "name": "plegWeiStaked",
          "type": "uint256"
        },
        {
          "internalType": "uint256",
          "name": "plegInterest",
          "type": "uint256"
        },
        {
          "internalType": "bool",
          "name": "open",
          "type": "bool"
        }
      ],
      "stateMutability": "view",
      "type": "function"
    },
    {
      "inputs": [
        {
          "internalType": "uint256",
          "name": "numDays",
          "type": "uint256"
        }
      ],
      "name": "stakePleg",
      "outputs": [],
      "stateMutability": "payable",
      "type": "function"
    },
    {
      "inputs": [
        {
          "internalType": "uint256",
          "name": "",
          "type": "uint256"
        }
      ],
      "name": "tiers",
      "outputs": [
        {
          "internalType": "uint256",
          "name": "",
          "type": "uint256"
        }
      ],
      "stateMutability": "view",
      "type": "function"
    }
  ],
  "bytecode": "0x6080604052336000806101000a81548173ffffffffffffffffffffffffffffffffffffffff021916908373ffffffffffffffffffffffffffffffffffffffff16021790555060006009819055506102bc600c6000601e8152602001908152602001600020819055506103e8600c6000605a8152602001908152602001600020819055506104b0600c600060b4815260200190815260200160002081905550600d601e9080600181540180825580915050600190039060005260206000200160009091909190915055600d605a9080600181540180825580915050600190039060005260206000200160009091909190915055600d60b490806001815401808255809150506001900390600052602060002001600090919091909150556115bb8061012a6000396000f3fe6080604052600436106100dd5760003560e01c80638da5cb5b1161007f578063b0f0475b11610059578063b0f0475b146102f2578063b838ec861461031b578063c7c9d05514610358578063e43db19314610381576100dd565b80638da5cb5b1461025a57806399fbab8814610285578063a126d601146102c9576100dd565b80632a89ec13116100bb5780632a89ec131461018757806340d98a44146101a357806345eae373146101e05780634c8f2a781461021d576100dd565b8063039af9eb146100e25780630c196a741461011f5780631131c8cd1461015c575b600080fd5b3480156100ee57600080fd5b5061010960048036038101906101049190610de8565b6103ac565b6040516101169190611299565b60405180910390f35b34801561012b57600080fd5b5061014660048036038101906101419190610de8565b6103c4565b6040516101539190611299565b60405180910390f35b34801561016857600080fd5b506101716103e1565b60405161017e9190611299565b60405180910390f35b6101a1600480360381019061019c9190610de8565b6103e7565b005b3480156101af57600080fd5b506101ca60048036038101906101c59190610d83565b610618565b6040516101d791906111bb565b60405180910390f35b3480156101ec57600080fd5b5061020760048036038101906102029190610dac565b6106af565b6040516102149190611299565b60405180910390f35b34801561022957600080fd5b50610244600480360381019061023f9190610de8565b6106e0565b6040516102519190611299565b60405180910390f35b34801561026657600080fd5b5061026f610704565b60405161027c91906111a0565b60405180910390f35b34801561029157600080fd5b506102ac60048036038101906102a79190610de8565b610728565b6040516102c09897969594939291906112b4565b60405180910390f35b3480156102d557600080fd5b506102f060048036038101906102eb9190610de8565b61079d565b005b3480156102fe57600080fd5b5061031960048036038101906103149190610e11565b610a26565b005b34801561032757600080fd5b50610342600480360381019061033d9190610de8565b610af9565b60405161034f919061127d565b60405180910390f35b34801561036457600080fd5b5061037f600480360381019061037a9190610e11565b610bd4565b005b34801561038d57600080fd5b50610396610c81565b6040516103a391906111bb565b60405180910390f35b600c6020528060005260406000206000915090505481565b6000600c6000838152602001908152602001600020549050919050565b60095481565b6000600c6000838152602001908152602001600020541161043d576040517f08c379a0000000000000000000000000000000000000000000000000000000008152600401610434906111fd565b60405180910390fd5b60405180610100016040528060095481526020013373ffffffffffffffffffffffffffffffffffffffff1681526020014281526020016201518083610482919061140e565b4261048d9190611387565b8152602001600c60008481526020019081526020016000205481526020013481526020016104ce600c60008581526020019081526020016000205434610cd9565b815260200160011515815250600a600060095481526020019081526020016000206000820151816000015560208201518160010160006101000a81548173ffffffffffffffffffffffffffffffffffffffff021916908373ffffffffffffffffffffffffffffffffffffffff16021790555060408201518160020155606082015181600301556080820151816004015560a0820151816005015560c0820151816006015560e08201518160070160006101000a81548160ff021916908315150217905550905050600b60003373ffffffffffffffffffffffffffffffffffffffff1673ffffffffffffffffffffffffffffffffffffffff168152602001908152602001600020600954908060018154018082558091505060019003906000526020600020016000909190919091505560096000815480929190610610906114b0565b919050555050565b6060600b60008373ffffffffffffffffffffffffffffffffffffffff1673ffffffffffffffffffffffffffffffffffffffff1681526020019081526020016000208054806020026020016040519081016040528092919081815260200182805480156106a357602002820191906000526020600020905b81548152602001906001019080831161068f575b50505050509050919050565b600b60205281600052604060002081815481106106cb57600080fd5b90600052602060002001600091509150505481565b600d81815481106106f057600080fd5b906000526020600020016000915090505481565b60008054906101000a900473ffffffffffffffffffffffffffffffffffffffff1681565b600a6020528060005260406000206000915090508060000154908060010160009054906101000a900473ffffffffffffffffffffffffffffffffffffffff16908060020154908060030154908060040154908060050154908060060154908060070160009054906101000a900460ff16905088565b3373ffffffffffffffffffffffffffffffffffffffff16600a600083815260200190815260200160002060010160009054906101000a900473ffffffffffffffffffffffffffffffffffffffff1673ffffffffffffffffffffffffffffffffffffffff1614610841576040517f08c379a00000000000000000000000000000000000000000000000000000000081526004016108389061121d565b60405180910390fd5b60011515600a600083815260200190815260200160002060070160009054906101000a900460ff161515146108ab576040517f08c379a00000000000000000000000000000000000000000000000000000000081526004016108a29061123d565b60405180910390fd5b6000600a600083815260200190815260200160002060070160006101000a81548160ff021916908315150217905550600a6000828152602001908152602001600020600301544211156109a3576000600a600083815260200190815260200160002060060154600a6000848152602001908152602001600020600501546109329190611387565b90503373ffffffffffffffffffffffffffffffffffffffff16816040516109589061118b565b60006040518083038185875af1925050503d8060008114610995576040519150601f19603f3d011682016040523d82523d6000602084013e61099a565b606091505b50505050610a23565b3373ffffffffffffffffffffffffffffffffffffffff16600a6000838152602001908152602001600020600501546040516109dd9061118b565b60006040518083038185875af1925050503d8060008114610a1a576040519150601f19603f3d011682016040523d82523d6000602084013e610a1f565b606091505b5050505b50565b3373ffffffffffffffffffffffffffffffffffffffff1660008054906101000a900473ffffffffffffffffffffffffffffffffffffffff1673ffffffffffffffffffffffffffffffffffffffff1614610ab4576040517f08c379a0000000000000000000000000000000000000000000000000000000008152600401610aab906111dd565b60405180910390fd5b80600c600084815260200190815260200160002081905550600d8290806001815401808255809150506001900390600052602060002001600090919091909150555050565b610b01610cfc565b600a600083815260200190815260200160002060405180610100016040529081600082015481526020016001820160009054906101000a900473ffffffffffffffffffffffffffffffffffffffff1673ffffffffffffffffffffffffffffffffffffffff1673ffffffffffffffffffffffffffffffffffffffff16815260200160028201548152602001600382015481526020016004820154815260200160058201548152602001600682015481526020016007820160009054906101000a900460ff1615151515815250509050919050565b3373ffffffffffffffffffffffffffffffffffffffff1660008054906101000a900473ffffffffffffffffffffffffffffffffffffffff1673ffffffffffffffffffffffffffffffffffffffff1614610c62576040517f08c379a0000000000000000000000000000000000000000000000000000000008152600401610c599061125d565b60405180910390fd5b80600a6000848152602001908152602001600020600301819055505050565b6060600d805480602002602001604051908101604052809291908181526020018280548015610ccf57602002820191906000526020600020905b815481526020019060010190808311610cbb575b5050505050905090565b60006127108284610cea919061140e565b610cf491906113dd565b905092915050565b60405180610100016040528060008152602001600073ffffffffffffffffffffffffffffffffffffffff16815260200160008152602001600081526020016000815260200160008152602001600081526020016000151581525090565b600081359050610d6881611557565b92915050565b600081359050610d7d8161156e565b92915050565b600060208284031215610d9557600080fd5b6000610da384828501610d59565b91505092915050565b60008060408385031215610dbf57600080fd5b6000610dcd85828601610d59565b9250506020610dde85828601610d6e565b9150509250929050565b600060208284031215610dfa57600080fd5b6000610e0884828501610d6e565b91505092915050565b60008060408385031215610e2457600080fd5b6000610e3285828601610d6e565b9250506020610e4385828601610d6e565b9150509250929050565b6000610e59838361116d565b60208301905092915050565b610e6e81611468565b82525050565b610e7d81611468565b82525050565b6000610e8e82611342565b610e98818561135a565b9350610ea383611332565b8060005b83811015610ed4578151610ebb8882610e4d565b9750610ec68361134d565b925050600181019050610ea7565b5085935050505092915050565b610eea8161147a565b82525050565b610ef98161147a565b82525050565b6000610f0c602583611376565b91507f4f6e6c79206f776e6572206d6179206d6f64696679207374616b696e6720706560008301527f72696f64730000000000000000000000000000000000000000000000000000006020830152604082019050919050565b6000610f72601183611376565b91507f4d617070696e67206e6f7420666f756e640000000000000000000000000000006000830152602082019050919050565b6000610fb2602983611376565b91507f4f6e6c7920706f736974696f6e2063726561746f72206d6179206d6f6469667960008301527f20706f736974696f6e00000000000000000000000000000000000000000000006020830152604082019050919050565b6000611018601283611376565b91507f506f736974696f6e20697320636c6f73656400000000000000000000000000006000830152602082019050919050565b6000611058602283611376565b91507f4f6e6c79206f776e6572206d6179206d6f6469667920756e6c6f636b2064617460008301527f65730000000000000000000000000000000000000000000000000000000000006020830152604082019050919050565b60006110be60008361136b565b9150600082019050919050565b610100820160008201516110e2600085018261116d565b5060208201516110f56020850182610e65565b506040820151611108604085018261116d565b50606082015161111b606085018261116d565b50608082015161112e608085018261116d565b5060a082015161114160a085018261116d565b5060c082015161115460c085018261116d565b5060e082015161116760e0850182610ee1565b50505050565b611176816114a6565b82525050565b611185816114a6565b82525050565b6000611196826110b1565b9150819050919050565b60006020820190506111b56000830184610e74565b92915050565b600060208201905081810360008301526111d58184610e83565b905092915050565b600060208201905081810360008301526111f681610eff565b9050919050565b6000602082019050818103600083015261121681610f65565b9050919050565b6000602082019050818103600083015261123681610fa5565b9050919050565b600060208201905081810360008301526112568161100b565b9050919050565b600060208201905081810360008301526112768161104b565b9050919050565b60006101008201905061129360008301846110cb565b92915050565b60006020820190506112ae600083018461117c565b92915050565b6000610100820190506112ca600083018b61117c565b6112d7602083018a610e74565b6112e4604083018961117c565b6112f1606083018861117c565b6112fe608083018761117c565b61130b60a083018661117c565b61131860c083018561117c565b61132560e0830184610ef0565b9998505050505050505050565b6000819050602082019050919050565b600081519050919050565b6000602082019050919050565b600082825260208201905092915050565b600081905092915050565b600082825260208201905092915050565b6000611392826114a6565b915061139d836114a6565b9250827fffffffffffffffffffffffffffffffffffffffffffffffffffffffffffffffff038211156113d2576113d16114f9565b5b828201905092915050565b60006113e8826114a6565b91506113f3836114a6565b92508261140357611402611528565b5b828204905092915050565b6000611419826114a6565b9150611424836114a6565b9250817fffffffffffffffffffffffffffffffffffffffffffffffffffffffffffffffff048311821515161561145d5761145c6114f9565b5b828202905092915050565b600061147382611486565b9050919050565b60008115159050919050565b600073ffffffffffffffffffffffffffffffffffffffff82169050919050565b6000819050919050565b60006114bb826114a6565b91507fffffffffffffffffffffffffffffffffffffffffffffffffffffffffffffffff8214156114ee576114ed6114f9565b5b600182019050919050565b7f4e487b7100000000000000000000000000000000000000000000000000000000600052601160045260246000fd5b7f4e487b7100000000000000000000000000000000000000000000000000000000600052601260045260246000fd5b61156081611468565b811461156b57600080fd5b50565b611577816114a6565b811461158257600080fd5b5056fea26469706673582212204cb2773fc24d620b9e856143375c92be3fbf80ab3f9fc61b344851d0d8e321c064736f6c63430008000033",
  "linkReferences": {},
  "deployedLinkReferences": {}
}