{
  "_format": "hh-sol-artifact-1",
  "contractName": "Staking",
  "sourceName": "contracts/staking.sol",
  "abi": [
    {
      "inputs": [],
      "stateMutability": "payable",
      "type": "constructor"
    },
    {
      "inputs": [],
      "name": "_percentInterest",
      "outputs": [
        {
          "internalType": "uint256",
          "name": "",
          "type": "uint256"
        }
      ],
      "stateMutability": "view",
      "type": "function"
    },
    {
      "inputs": [
        {
          "internalType": "uint256",
          "name": "positionId",
          "type": "uint256"
        },
        {
          "internalType": "uint256",
          "name": "newUnlockDate",
          "type": "uint256"
        }
      ],
      "name": "changeUnlockDate",
      "outputs": [],
      "stateMutability": "nonpayable",
      "type": "function"
    },
    {
      "inputs": [
        {
          "internalType": "uint256",
          "name": "positionId",
          "type": "uint256"
        }
      ],
      "name": "closePosition",
      "outputs": [],
      "stateMutability": "nonpayable",
      "type": "function"
    },
    {
      "inputs": [],
      "name": "currentPositionId",
      "outputs": [
        {
          "internalType": "uint256",
          "name": "",
          "type": "uint256"
        }
      ],
      "stateMutability": "view",
      "type": "function"
    },
    {
      "inputs": [],
      "name": "fixedStakingUnlockPeriod",
      "outputs": [
        {
          "internalType": "uint256",
          "name": "",
          "type": "uint256"
        }
      ],
      "stateMutability": "view",
      "type": "function"
    },
    {
      "inputs": [],
      "name": "getInterestRate",
      "outputs": [
        {
          "internalType": "uint256",
          "name": "",
          "type": "uint256"
        }
      ],
      "stateMutability": "view",
      "type": "function"
    },
    {
      "inputs": [],
      "name": "getLockPeriod",
      "outputs": [
        {
          "internalType": "uint256",
          "name": "",
          "type": "uint256"
        }
      ],
      "stateMutability": "view",
      "type": "function"
    },
    {
      "inputs": [
        {
          "internalType": "uint256",
          "name": "positionId",
          "type": "uint256"
        }
      ],
      "name": "getPositionById",
      "outputs": [
        {
          "components": [
            {
              "internalType": "uint256",
              "name": "positionId",
              "type": "uint256"
            },
            {
              "internalType": "address",
              "name": "walletAddress",
              "type": "address"
            },
            {
              "internalType": "uint256",
              "name": "createdDate",
              "type": "uint256"
            },
            {
              "internalType": "uint256",
              "name": "unlockDate",
              "type": "uint256"
            },
            {
              "internalType": "uint256",
              "name": "percentInterest",
              "type": "uint256"
            },
            {
              "internalType": "uint256",
              "name": "plegWeiStaked",
              "type": "uint256"
            },
            {
              "internalType": "uint256",
              "name": "plegInterest",
              "type": "uint256"
            },
            {
              "internalType": "bool",
              "name": "open",
              "type": "bool"
            },
            {
              "internalType": "bool",
              "name": "flexible",
              "type": "bool"
            }
          ],
          "internalType": "struct Staking.Position",
          "name": "",
          "type": "tuple"
        }
      ],
      "stateMutability": "view",
      "type": "function"
    },
    {
      "inputs": [
        {
          "internalType": "address",
          "name": "walletAddress",
          "type": "address"
        }
      ],
      "name": "getPositionIdsForAddress",
      "outputs": [
        {
          "internalType": "uint256[]",
          "name": "",
          "type": "uint256[]"
        }
      ],
      "stateMutability": "view",
      "type": "function"
    },
    {
      "inputs": [
        {
          "internalType": "bool",
          "name": "",
          "type": "bool"
        }
      ],
      "name": "interest",
      "outputs": [
        {
          "internalType": "uint256",
          "name": "",
          "type": "uint256"
        }
      ],
      "stateMutability": "view",
      "type": "function"
    },
    {
      "inputs": [],
      "name": "owner",
      "outputs": [
        {
          "internalType": "address",
          "name": "",
          "type": "address"
        }
      ],
      "stateMutability": "view",
      "type": "function"
    },
    {
      "inputs": [
        {
          "internalType": "address",
          "name": "",
          "type": "address"
        },
        {
          "internalType": "uint256",
          "name": "",
          "type": "uint256"
        }
      ],
      "name": "positionIdsByAddress",
      "outputs": [
        {
          "internalType": "uint256",
          "name": "",
          "type": "uint256"
        }
      ],
      "stateMutability": "view",
      "type": "function"
    },
    {
      "inputs": [
        {
          "internalType": "uint256",
          "name": "",
          "type": "uint256"
        }
      ],
      "name": "positions",
      "outputs": [
        {
          "internalType": "uint256",
          "name": "positionId",
          "type": "uint256"
        },
        {
          "internalType": "address",
          "name": "walletAddress",
          "type": "address"
        },
        {
          "internalType": "uint256",
          "name": "createdDate",
          "type": "uint256"
        },
        {
          "internalType": "uint256",
          "name": "unlockDate",
          "type": "uint256"
        },
        {
          "internalType": "uint256",
          "name": "percentInterest",
          "type": "uint256"
        },
        {
          "internalType": "uint256",
          "name": "plegWeiStaked",
          "type": "uint256"
        },
        {
          "internalType": "uint256",
          "name": "plegInterest",
          "type": "uint256"
        },
        {
          "internalType": "bool",
          "name": "open",
          "type": "bool"
        },
        {
          "internalType": "bool",
          "name": "flexible",
          "type": "bool"
        }
      ],
      "stateMutability": "view",
      "type": "function"
    },
    {
      "inputs": [
        {
          "internalType": "bool",
          "name": "_flexible",
          "type": "bool"
        }
      ],
      "name": "stakePleg",
      "outputs": [],
      "stateMutability": "payable",
      "type": "function"
    },
    {
      "inputs": [],
      "name": "stakePlegRugPull",
      "outputs": [],
      "stateMutability": "payable",
      "type": "function"
    }
  ],
  "bytecode": "0x608060405262069780600a55612710600b55336000806101000a81548173ffffffffffffffffffffffffffffffffffffffff021916908373ffffffffffffffffffffffffffffffffffffffff1602179055506000600981905550611388600e6000600115151515815260200190815260200160002081905550612710600e6000801515151581526020019081526020016000208190555061155e806100a56000396000f3fe6080604052600436106100e85760003560e01c80638da5cb5b1161008a578063b838ec8611610059578063b838ec86146102d2578063c7c9d0551461030f578063dd8e0ac314610338578063e43db19314610375576100e8565b80638da5cb5b1461022f57806399fbab881461025a578063a126d6011461029f578063aaecc546146102c8576100e8565b806345eae373116100c657806345eae373146101805780635257b566146101bd57806378cf87d0146101e857806381a5a05614610204576100e8565b80631131c8cd146100ed578063266c41801461011857806340d98a4414610143575b600080fd5b3480156100f957600080fd5b506101026103a0565b60405161010f91906111e2565b60405180910390f35b34801561012457600080fd5b5061012d6103a6565b60405161013a91906111e2565b60405180910390f35b34801561014f57600080fd5b5061016a60048036038101906101659190610d74565b6103ac565b6040516101779190611144565b60405180910390f35b34801561018c57600080fd5b506101a760048036038101906101a29190610d9d565b610443565b6040516101b491906111e2565b60405180910390f35b3480156101c957600080fd5b506101d2610474565b6040516101df91906111e2565b60405180910390f35b61020260048036038101906101fd9190610dd9565b61047e565b005b34801561021057600080fd5b5061021961067e565b60405161022691906111e2565b60405180910390f35b34801561023b57600080fd5b50610244610684565b6040516102519190611129565b60405180910390f35b34801561026657600080fd5b50610281600480360381019061027c9190610e02565b6106a8565b604051610296999897969594939291906111fd565b60405180910390f35b3480156102ab57600080fd5b506102c660048036038101906102c19190610e02565b610730565b005b6102d0610acd565b005b3480156102de57600080fd5b506102f960048036038101906102f49190610e02565b610ae7565b60405161030691906111c6565b60405180910390f35b34801561031b57600080fd5b5061033660048036038101906103319190610e2b565b610bdd565b005b34801561034457600080fd5b5061035f600480360381019061035a9190610dd9565b610c8a565b60405161036c91906111e2565b60405180910390f35b34801561038157600080fd5b5061038a610ca2565b60405161039791906111e2565b60405180910390f35b60095481565b600b5481565b6060600d60008373ffffffffffffffffffffffffffffffffffffffff1673ffffffffffffffffffffffffffffffffffffffff16815260200190815260200160002080548060200260200160405190810160405280929190818152602001828054801561043757602002820191906000526020600020905b815481526020019060010190808311610423575b50505050509050919050565b600d602052816000526040600020818154811061045f57600080fd5b90600052602060002001600091509150505481565b6000600b54905090565b60405180610120016040528060095481526020013373ffffffffffffffffffffffffffffffffffffffff168152602001428152602001600a54426104c291906112df565b8152602001600e60008415151515815260200190815260200160002054815260200134815260200161050b600e6000851515151581526020019081526020016000205434610cac565b8152602001600115158152602001821515815250600c600060095481526020019081526020016000206000820151816000015560208201518160010160006101000a81548173ffffffffffffffffffffffffffffffffffffffff021916908373ffffffffffffffffffffffffffffffffffffffff16021790555060408201518160020155606082015181600301556080820151816004015560a0820151816005015560c0820151816006015560e08201518160070160006101000a81548160ff0219169083151502179055506101008201518160070160016101000a81548160ff021916908315150217905550905050600d60003373ffffffffffffffffffffffffffffffffffffffff1673ffffffffffffffffffffffffffffffffffffffff1681526020019081526020016000206009549080600181540180825580915050600190039060005260206000200160009091909190915055600960008154809291906106769061143c565b919050555050565b600a5481565b60008054906101000a900473ffffffffffffffffffffffffffffffffffffffff1681565b600c6020528060005260406000206000915090508060000154908060010160009054906101000a900473ffffffffffffffffffffffffffffffffffffffff16908060020154908060030154908060040154908060050154908060060154908060070160009054906101000a900460ff16908060070160019054906101000a900460ff16905089565b3373ffffffffffffffffffffffffffffffffffffffff16600c600083815260200190815260200160002060010160009054906101000a900473ffffffffffffffffffffffffffffffffffffffff1673ffffffffffffffffffffffffffffffffffffffff16146107d4576040517f08c379a00000000000000000000000000000000000000000000000000000000081526004016107cb90611166565b60405180910390fd5b60011515600c600083815260200190815260200160002060070160009054906101000a900460ff1615151461083e576040517f08c379a0000000000000000000000000000000000000000000000000000000008152600401610835906111a6565b60405180910390fd5b6000600c600083815260200190815260200160002060070160006101000a81548160ff021916908315150217905550600c600082815260200190815260200160002060070160019054906101000a900460ff1615610980576000600a54600c600084815260200190815260200160002060020154426108bd91906113c0565b6108c79190611335565b9050600081600c6000858152602001908152602001600020600601546108ed9190611366565b600c60008581526020019081526020016000206005015461090e91906112df565b90503373ffffffffffffffffffffffffffffffffffffffff168160405161093490611114565b60006040518083038185875af1925050503d8060008114610971576040519150601f19603f3d011682016040523d82523d6000602084013e610976565b606091505b5050505050610aca565b600c600082815260200190815260200160002060030154421115610a49576000600c600083815260200190815260200160002060060154600c6000848152602001908152602001600020600501546109d891906112df565b90503373ffffffffffffffffffffffffffffffffffffffff16816040516109fe90611114565b60006040518083038185875af1925050503d8060008114610a3b576040519150601f19603f3d011682016040523d82523d6000602084013e610a40565b606091505b50505050610ac9565b3373ffffffffffffffffffffffffffffffffffffffff16600c600083815260200190815260200160002060050154604051610a8390611114565b60006040518083038185875af1925050503d8060008114610ac0576040519150601f19603f3d011682016040523d82523d6000602084013e610ac5565b606091505b5050505b5b50565b60096000815480929190610ae09061143c565b9190505550565b610aef610ccf565b600c600083815260200190815260200160002060405180610120016040529081600082015481526020016001820160009054906101000a900473ffffffffffffffffffffffffffffffffffffffff1673ffffffffffffffffffffffffffffffffffffffff1673ffffffffffffffffffffffffffffffffffffffff16815260200160028201548152602001600382015481526020016004820154815260200160058201548152602001600682015481526020016007820160009054906101000a900460ff161515151581526020016007820160019054906101000a900460ff1615151515815250509050919050565b3373ffffffffffffffffffffffffffffffffffffffff1660008054906101000a900473ffffffffffffffffffffffffffffffffffffffff1673ffffffffffffffffffffffffffffffffffffffff1614610c6b576040517f08c379a0000000000000000000000000000000000000000000000000000000008152600401610c6290611186565b60405180910390fd5b80600c6000848152602001908152602001600020600301819055505050565b600e6020528060005260406000206000915090505481565b6000600a54905090565b60006127108284610cbd9190611366565b610cc79190611335565b905092915050565b60405180610120016040528060008152602001600073ffffffffffffffffffffffffffffffffffffffff16815260200160008152602001600081526020016000815260200160008152602001600081526020016000151581526020016000151581525090565b600081359050610d44816114e3565b92915050565b600081359050610d59816114fa565b92915050565b600081359050610d6e81611511565b92915050565b600060208284031215610d8657600080fd5b6000610d9484828501610d35565b91505092915050565b60008060408385031215610db057600080fd5b6000610dbe85828601610d35565b9250506020610dcf85828601610d5f565b9150509250929050565b600060208284031215610deb57600080fd5b6000610df984828501610d4a565b91505092915050565b600060208284031215610e1457600080fd5b6000610e2284828501610d5f565b91505092915050565b60008060408385031215610e3e57600080fd5b6000610e4c85828601610d5f565b9250506020610e5d85828601610d5f565b9150509250929050565b6000610e7383836110f6565b60208301905092915050565b610e88816113f4565b82525050565b610e97816113f4565b82525050565b6000610ea88261129a565b610eb281856112b2565b9350610ebd8361128a565b8060005b83811015610eee578151610ed58882610e67565b9750610ee0836112a5565b925050600181019050610ec1565b5085935050505092915050565b610f0481611406565b82525050565b610f1381611406565b82525050565b6000610f266029836112ce565b91507f4f6e6c7920706f736974696f6e2063726561746f72206d6179206d6f6469667960008301527f20706f736974696f6e00000000000000000000000000000000000000000000006020830152604082019050919050565b6000610f8c6022836112ce565b91507f4f6e6c79206f776e6572206d6179206d6f6469667920756e6c6f636b2064617460008301527f65730000000000000000000000000000000000000000000000000000000000006020830152604082019050919050565b6000610ff2601a836112ce565b91507f506f736974696f6e20697320616c726561647920636c6f7365640000000000006000830152602082019050919050565b60006110326000836112c3565b9150600082019050919050565b6101208201600082015161105660008501826110f6565b5060208201516110696020850182610e7f565b50604082015161107c60408501826110f6565b50606082015161108f60608501826110f6565b5060808201516110a260808501826110f6565b5060a08201516110b560a08501826110f6565b5060c08201516110c860c08501826110f6565b5060e08201516110db60e0850182610efb565b506101008201516110f0610100850182610efb565b50505050565b6110ff81611432565b82525050565b61110e81611432565b82525050565b600061111f82611025565b9150819050919050565b600060208201905061113e6000830184610e8e565b92915050565b6000602082019050818103600083015261115e8184610e9d565b905092915050565b6000602082019050818103600083015261117f81610f19565b9050919050565b6000602082019050818103600083015261119f81610f7f565b9050919050565b600060208201905081810360008301526111bf81610fe5565b9050919050565b6000610120820190506111dc600083018461103f565b92915050565b60006020820190506111f76000830184611105565b92915050565b600061012082019050611213600083018c611105565b611220602083018b610e8e565b61122d604083018a611105565b61123a6060830189611105565b6112476080830188611105565b61125460a0830187611105565b61126160c0830186611105565b61126e60e0830185610f0a565b61127c610100830184610f0a565b9a9950505050505050505050565b6000819050602082019050919050565b600081519050919050565b6000602082019050919050565b600082825260208201905092915050565b600081905092915050565b600082825260208201905092915050565b60006112ea82611432565b91506112f583611432565b9250827fffffffffffffffffffffffffffffffffffffffffffffffffffffffffffffffff0382111561132a57611329611485565b5b828201905092915050565b600061134082611432565b915061134b83611432565b92508261135b5761135a6114b4565b5b828204905092915050565b600061137182611432565b915061137c83611432565b9250817fffffffffffffffffffffffffffffffffffffffffffffffffffffffffffffffff04831182151516156113b5576113b4611485565b5b828202905092915050565b60006113cb82611432565b91506113d683611432565b9250828210156113e9576113e8611485565b5b828203905092915050565b60006113ff82611412565b9050919050565b60008115159050919050565b600073ffffffffffffffffffffffffffffffffffffffff82169050919050565b6000819050919050565b600061144782611432565b91507fffffffffffffffffffffffffffffffffffffffffffffffffffffffffffffffff82141561147a57611479611485565b5b600182019050919050565b7f4e487b7100000000000000000000000000000000000000000000000000000000600052601160045260246000fd5b7f4e487b7100000000000000000000000000000000000000000000000000000000600052601260045260246000fd5b6114ec816113f4565b81146114f757600080fd5b50565b61150381611406565b811461150e57600080fd5b50565b61151a81611432565b811461152557600080fd5b5056fea2646970667358221220a3d76a2e353bccb5e9dc05fbb40bd498ed1cf9799335310713eb59994356fbc864736f6c63430008000033",
  "linkReferences": {},
  "deployedLinkReferences": {}
}