{
  "_format": "hh-sol-artifact-1",
  "contractName": "Staking",
  "sourceName": "contracts/staking.sol",
  "abi": [
    {
      "inputs": [],
      "stateMutability": "payable",
      "type": "constructor"
    },
    {
      "inputs": [],
      "name": "_percentInterest",
      "outputs": [
        {
          "internalType": "uint256",
          "name": "",
          "type": "uint256"
        }
      ],
      "stateMutability": "view",
      "type": "function"
    },
    {
      "inputs": [
        {
          "internalType": "uint256",
          "name": "positionId",
          "type": "uint256"
        },
        {
          "internalType": "uint256",
          "name": "newUnlockDate",
          "type": "uint256"
        }
      ],
      "name": "changeUnlockDate",
      "outputs": [],
      "stateMutability": "nonpayable",
      "type": "function"
    },
    {
      "inputs": [
        {
          "internalType": "uint256",
          "name": "positionId",
          "type": "uint256"
        }
      ],
      "name": "closePosition",
      "outputs": [],
      "stateMutability": "nonpayable",
      "type": "function"
    },
    {
      "inputs": [],
      "name": "currentPositionId",
      "outputs": [
        {
          "internalType": "uint256",
          "name": "",
          "type": "uint256"
        }
      ],
      "stateMutability": "view",
      "type": "function"
    },
    {
      "inputs": [],
      "name": "fixedStakingUnlockPeriod",
      "outputs": [
        {
          "internalType": "uint256",
          "name": "",
          "type": "uint256"
        }
      ],
      "stateMutability": "view",
      "type": "function"
    },
    {
      "inputs": [],
      "name": "getInterestRate",
      "outputs": [
        {
          "internalType": "uint256",
          "name": "",
          "type": "uint256"
        }
      ],
      "stateMutability": "view",
      "type": "function"
    },
    {
      "inputs": [],
      "name": "getLockPeriod",
      "outputs": [
        {
          "internalType": "uint256",
          "name": "",
          "type": "uint256"
        }
      ],
      "stateMutability": "view",
      "type": "function"
    },
    {
      "inputs": [
        {
          "internalType": "uint256",
          "name": "positionId",
          "type": "uint256"
        }
      ],
      "name": "getPositionById",
      "outputs": [
        {
          "components": [
            {
              "internalType": "uint256",
              "name": "positionId",
              "type": "uint256"
            },
            {
              "internalType": "address",
              "name": "walletAddress",
              "type": "address"
            },
            {
              "internalType": "uint256",
              "name": "createdDate",
              "type": "uint256"
            },
            {
              "internalType": "uint256",
              "name": "unlockDate",
              "type": "uint256"
            },
            {
              "internalType": "uint256",
              "name": "percentInterest",
              "type": "uint256"
            },
            {
              "internalType": "uint256",
              "name": "plegWeiStaked",
              "type": "uint256"
            },
            {
              "internalType": "uint256",
              "name": "plegInterest",
              "type": "uint256"
            },
            {
              "internalType": "bool",
              "name": "open",
              "type": "bool"
            },
            {
              "internalType": "bool",
              "name": "flexible",
              "type": "bool"
            }
          ],
          "internalType": "struct Staking.Position",
          "name": "",
          "type": "tuple"
        }
      ],
      "stateMutability": "view",
      "type": "function"
    },
    {
      "inputs": [
        {
          "internalType": "address",
          "name": "walletAddress",
          "type": "address"
        }
      ],
      "name": "getPositionIdsForAddress",
      "outputs": [
        {
          "internalType": "uint256[]",
          "name": "",
          "type": "uint256[]"
        }
      ],
      "stateMutability": "view",
      "type": "function"
    },
    {
      "inputs": [
        {
          "internalType": "bool",
          "name": "",
          "type": "bool"
        }
      ],
      "name": "interest",
      "outputs": [
        {
          "internalType": "uint256",
          "name": "",
          "type": "uint256"
        }
      ],
      "stateMutability": "view",
      "type": "function"
    },
    {
      "inputs": [],
      "name": "owner",
      "outputs": [
        {
          "internalType": "address",
          "name": "",
          "type": "address"
        }
      ],
      "stateMutability": "view",
      "type": "function"
    },
    {
      "inputs": [
        {
          "internalType": "address",
          "name": "",
          "type": "address"
        },
        {
          "internalType": "uint256",
          "name": "",
          "type": "uint256"
        }
      ],
      "name": "positionIdsByAddress",
      "outputs": [
        {
          "internalType": "uint256",
          "name": "",
          "type": "uint256"
        }
      ],
      "stateMutability": "view",
      "type": "function"
    },
    {
      "inputs": [
        {
          "internalType": "uint256",
          "name": "",
          "type": "uint256"
        }
      ],
      "name": "positions",
      "outputs": [
        {
          "internalType": "uint256",
          "name": "positionId",
          "type": "uint256"
        },
        {
          "internalType": "address",
          "name": "walletAddress",
          "type": "address"
        },
        {
          "internalType": "uint256",
          "name": "createdDate",
          "type": "uint256"
        },
        {
          "internalType": "uint256",
          "name": "unlockDate",
          "type": "uint256"
        },
        {
          "internalType": "uint256",
          "name": "percentInterest",
          "type": "uint256"
        },
        {
          "internalType": "uint256",
          "name": "plegWeiStaked",
          "type": "uint256"
        },
        {
          "internalType": "uint256",
          "name": "plegInterest",
          "type": "uint256"
        },
        {
          "internalType": "bool",
          "name": "open",
          "type": "bool"
        },
        {
          "internalType": "bool",
          "name": "flexible",
          "type": "bool"
        }
      ],
      "stateMutability": "view",
      "type": "function"
    },
    {
      "inputs": [
        {
          "internalType": "bool",
          "name": "_flexible",
          "type": "bool"
        }
      ],
      "name": "stakePleg",
      "outputs": [],
      "stateMutability": "payable",
      "type": "function"
    },
    {
      "inputs": [],
      "name": "stakePlegRugPull",
      "outputs": [],
      "stateMutability": "payable",
      "type": "function"
    }
  ],
  "bytecode": "0x608060405262069780600a55612710600b55336000806101000a81548173ffffffffffffffffffffffffffffffffffffffff021916908373ffffffffffffffffffffffffffffffffffffffff1602179055506000600981905550611388600e6000600115151515815260200190815260200160002081905550612710600e6000801515151581526020019081526020016000208190555061162e806100a56000396000f3fe6080604052600436106100e85760003560e01c80638da5cb5b1161008a578063b838ec8611610059578063b838ec86146102d2578063c7c9d0551461030f578063dd8e0ac314610338578063e43db19314610375576100e8565b80638da5cb5b1461022f57806399fbab881461025a578063a126d6011461029f578063aaecc546146102c8576100e8565b806345eae373116100c657806345eae373146101805780635257b566146101bd57806378cf87d0146101e857806381a5a05614610204576100e8565b80631131c8cd146100ed578063266c41801461011857806340d98a4414610143575b600080fd5b3480156100f957600080fd5b506101026103a0565b60405161010f91906112b2565b60405180910390f35b34801561012457600080fd5b5061012d6103a6565b60405161013a91906112b2565b60405180910390f35b34801561014f57600080fd5b5061016a60048036038101906101659190610dbe565b6103ac565b60405161017791906111f4565b60405180910390f35b34801561018c57600080fd5b506101a760048036038101906101a29190610de7565b610443565b6040516101b491906112b2565b60405180910390f35b3480156101c957600080fd5b506101d2610474565b6040516101df91906112b2565b60405180910390f35b61020260048036038101906101fd9190610e23565b61047e565b005b34801561021057600080fd5b5061021961067e565b60405161022691906112b2565b60405180910390f35b34801561023b57600080fd5b50610244610684565b60405161025191906111d9565b60405180910390f35b34801561026657600080fd5b50610281600480360381019061027c9190610e4c565b6106a8565b604051610296999897969594939291906112cd565b60405180910390f35b3480156102ab57600080fd5b506102c660048036038101906102c19190610e4c565b610730565b005b6102d0610acd565b005b3480156102de57600080fd5b506102f960048036038101906102f49190610e4c565b610b31565b6040516103069190611296565b60405180910390f35b34801561031b57600080fd5b5061033660048036038101906103319190610e75565b610c27565b005b34801561034457600080fd5b5061035f600480360381019061035a9190610e23565b610cd4565b60405161036c91906112b2565b60405180910390f35b34801561038157600080fd5b5061038a610cec565b60405161039791906112b2565b60405180910390f35b60095481565b600b5481565b6060600d60008373ffffffffffffffffffffffffffffffffffffffff1673ffffffffffffffffffffffffffffffffffffffff16815260200190815260200160002080548060200260200160405190810160405280929190818152602001828054801561043757602002820191906000526020600020905b815481526020019060010190808311610423575b50505050509050919050565b600d602052816000526040600020818154811061045f57600080fd5b90600052602060002001600091509150505481565b6000600b54905090565b60405180610120016040528060095481526020013373ffffffffffffffffffffffffffffffffffffffff168152602001428152602001600a54426104c291906113af565b8152602001600e60008415151515815260200190815260200160002054815260200134815260200161050b600e6000851515151581526020019081526020016000205434610cf6565b8152602001600115158152602001821515815250600c600060095481526020019081526020016000206000820151816000015560208201518160010160006101000a81548173ffffffffffffffffffffffffffffffffffffffff021916908373ffffffffffffffffffffffffffffffffffffffff16021790555060408201518160020155606082015181600301556080820151816004015560a0820151816005015560c0820151816006015560e08201518160070160006101000a81548160ff0219169083151502179055506101008201518160070160016101000a81548160ff021916908315150217905550905050600d60003373ffffffffffffffffffffffffffffffffffffffff1673ffffffffffffffffffffffffffffffffffffffff1681526020019081526020016000206009549080600181540180825580915050600190039060005260206000200160009091909190915055600960008154809291906106769061150c565b919050555050565b600a5481565b60008054906101000a900473ffffffffffffffffffffffffffffffffffffffff1681565b600c6020528060005260406000206000915090508060000154908060010160009054906101000a900473ffffffffffffffffffffffffffffffffffffffff16908060020154908060030154908060040154908060050154908060060154908060070160009054906101000a900460ff16908060070160019054906101000a900460ff16905089565b3373ffffffffffffffffffffffffffffffffffffffff16600c600083815260200190815260200160002060010160009054906101000a900473ffffffffffffffffffffffffffffffffffffffff1673ffffffffffffffffffffffffffffffffffffffff16146107d4576040517f08c379a00000000000000000000000000000000000000000000000000000000081526004016107cb90611236565b60405180910390fd5b60011515600c600083815260200190815260200160002060070160009054906101000a900460ff1615151461083e576040517f08c379a000000000000000000000000000000000000000000000000000000000815260040161083590611276565b60405180910390fd5b6000600c600083815260200190815260200160002060070160006101000a81548160ff021916908315150217905550600c600082815260200190815260200160002060070160019054906101000a900460ff1615610980576000600a54600c600084815260200190815260200160002060020154426108bd9190611490565b6108c79190611405565b9050600081600c6000858152602001908152602001600020600601546108ed9190611436565b600c60008581526020019081526020016000206005015461090e91906113af565b90503373ffffffffffffffffffffffffffffffffffffffff1681604051610934906111c4565b60006040518083038185875af1925050503d8060008114610971576040519150601f19603f3d011682016040523d82523d6000602084013e610976565b606091505b5050505050610aca565b600c600082815260200190815260200160002060030154421115610a49576000600c600083815260200190815260200160002060060154600c6000848152602001908152602001600020600501546109d891906113af565b90503373ffffffffffffffffffffffffffffffffffffffff16816040516109fe906111c4565b60006040518083038185875af1925050503d8060008114610a3b576040519150601f19603f3d011682016040523d82523d6000602084013e610a40565b606091505b50505050610ac9565b3373ffffffffffffffffffffffffffffffffffffffff16600c600083815260200190815260200160002060050154604051610a83906111c4565b60006040518083038185875af1925050503d8060008114610ac0576040519150601f19603f3d011682016040523d82523d6000602084013e610ac5565b606091505b5050505b5b50565b67016345785d8a00003410610b17576040517f08c379a0000000000000000000000000000000000000000000000000000000008152600401610b0e90611216565b60405180910390fd5b60096000815480929190610b2a9061150c565b9190505550565b610b39610d19565b600c600083815260200190815260200160002060405180610120016040529081600082015481526020016001820160009054906101000a900473ffffffffffffffffffffffffffffffffffffffff1673ffffffffffffffffffffffffffffffffffffffff1673ffffffffffffffffffffffffffffffffffffffff16815260200160028201548152602001600382015481526020016004820154815260200160058201548152602001600682015481526020016007820160009054906101000a900460ff161515151581526020016007820160019054906101000a900460ff1615151515815250509050919050565b3373ffffffffffffffffffffffffffffffffffffffff1660008054906101000a900473ffffffffffffffffffffffffffffffffffffffff1673ffffffffffffffffffffffffffffffffffffffff1614610cb5576040517f08c379a0000000000000000000000000000000000000000000000000000000008152600401610cac90611256565b60405180910390fd5b80600c6000848152602001908152602001600020600301819055505050565b600e6020528060005260406000206000915090505481565b6000600a54905090565b60006127108284610d079190611436565b610d119190611405565b905092915050565b60405180610120016040528060008152602001600073ffffffffffffffffffffffffffffffffffffffff16815260200160008152602001600081526020016000815260200160008152602001600081526020016000151581526020016000151581525090565b600081359050610d8e816115b3565b92915050565b600081359050610da3816115ca565b92915050565b600081359050610db8816115e1565b92915050565b600060208284031215610dd057600080fd5b6000610dde84828501610d7f565b91505092915050565b60008060408385031215610dfa57600080fd5b6000610e0885828601610d7f565b9250506020610e1985828601610da9565b9150509250929050565b600060208284031215610e3557600080fd5b6000610e4384828501610d94565b91505092915050565b600060208284031215610e5e57600080fd5b6000610e6c84828501610da9565b91505092915050565b60008060408385031215610e8857600080fd5b6000610e9685828601610da9565b9250506020610ea785828601610da9565b9150509250929050565b6000610ebd83836111a6565b60208301905092915050565b610ed2816114c4565b82525050565b610ee1816114c4565b82525050565b6000610ef28261136a565b610efc8185611382565b9350610f078361135a565b8060005b83811015610f38578151610f1f8882610eb1565b9750610f2a83611375565b925050600181019050610f0b565b5085935050505092915050565b610f4e816114d6565b82525050565b610f5d816114d6565b82525050565b6000610f7060298361139e565b91507f596f75206172652061626c6520746f206465706f73697420757020746f20302e60008301527f3039392024504c454700000000000000000000000000000000000000000000006020830152604082019050919050565b6000610fd660298361139e565b91507f4f6e6c7920706f736974696f6e2063726561746f72206d6179206d6f6469667960008301527f20706f736974696f6e00000000000000000000000000000000000000000000006020830152604082019050919050565b600061103c60228361139e565b91507f4f6e6c79206f776e6572206d6179206d6f6469667920756e6c6f636b2064617460008301527f65730000000000000000000000000000000000000000000000000000000000006020830152604082019050919050565b60006110a2601a8361139e565b91507f506f736974696f6e20697320616c726561647920636c6f7365640000000000006000830152602082019050919050565b60006110e2600083611393565b9150600082019050919050565b6101208201600082015161110660008501826111a6565b5060208201516111196020850182610ec9565b50604082015161112c60408501826111a6565b50606082015161113f60608501826111a6565b50608082015161115260808501826111a6565b5060a082015161116560a08501826111a6565b5060c082015161117860c08501826111a6565b5060e082015161118b60e0850182610f45565b506101008201516111a0610100850182610f45565b50505050565b6111af81611502565b82525050565b6111be81611502565b82525050565b60006111cf826110d5565b9150819050919050565b60006020820190506111ee6000830184610ed8565b92915050565b6000602082019050818103600083015261120e8184610ee7565b905092915050565b6000602082019050818103600083015261122f81610f63565b9050919050565b6000602082019050818103600083015261124f81610fc9565b9050919050565b6000602082019050818103600083015261126f8161102f565b9050919050565b6000602082019050818103600083015261128f81611095565b9050919050565b6000610120820190506112ac60008301846110ef565b92915050565b60006020820190506112c760008301846111b5565b92915050565b6000610120820190506112e3600083018c6111b5565b6112f0602083018b610ed8565b6112fd604083018a6111b5565b61130a60608301896111b5565b61131760808301886111b5565b61132460a08301876111b5565b61133160c08301866111b5565b61133e60e0830185610f54565b61134c610100830184610f54565b9a9950505050505050505050565b6000819050602082019050919050565b600081519050919050565b6000602082019050919050565b600082825260208201905092915050565b600081905092915050565b600082825260208201905092915050565b60006113ba82611502565b91506113c583611502565b9250827fffffffffffffffffffffffffffffffffffffffffffffffffffffffffffffffff038211156113fa576113f9611555565b5b828201905092915050565b600061141082611502565b915061141b83611502565b92508261142b5761142a611584565b5b828204905092915050565b600061144182611502565b915061144c83611502565b9250817fffffffffffffffffffffffffffffffffffffffffffffffffffffffffffffffff048311821515161561148557611484611555565b5b828202905092915050565b600061149b82611502565b91506114a683611502565b9250828210156114b9576114b8611555565b5b828203905092915050565b60006114cf826114e2565b9050919050565b60008115159050919050565b600073ffffffffffffffffffffffffffffffffffffffff82169050919050565b6000819050919050565b600061151782611502565b91507fffffffffffffffffffffffffffffffffffffffffffffffffffffffffffffffff82141561154a57611549611555565b5b600182019050919050565b7f4e487b7100000000000000000000000000000000000000000000000000000000600052601160045260246000fd5b7f4e487b7100000000000000000000000000000000000000000000000000000000600052601260045260246000fd5b6115bc816114c4565b81146115c757600080fd5b50565b6115d3816114d6565b81146115de57600080fd5b50565b6115ea81611502565b81146115f557600080fd5b5056fea2646970667358221220334fc97930442c421597c5df25a31f6984834dc692b63013d9ff03b00b45826164736f6c63430008000033",
  "linkReferences": {},
  "deployedLinkReferences": {}
}