{
  "_format": "hh-sol-artifact-1",
  "contractName": "Staking",
  "sourceName": "contracts/staking.sol",
  "abi": [
    {
      "inputs": [
        {
          "internalType": "contract IERC20",
          "name": "_token",
          "type": "address"
        }
      ],
      "stateMutability": "payable",
      "type": "constructor"
    },
    {
      "inputs": [],
      "name": "_percentInterest",
      "outputs": [
        {
          "internalType": "uint256",
          "name": "",
          "type": "uint256"
        }
      ],
      "stateMutability": "view",
      "type": "function"
    },
    {
      "inputs": [],
      "name": "airdrop",
      "outputs": [
        {
          "internalType": "bool",
          "name": "",
          "type": "bool"
        }
      ],
      "stateMutability": "payable",
      "type": "function"
    },
    {
      "inputs": [
        {
          "internalType": "uint256",
          "name": "positionId",
          "type": "uint256"
        },
        {
          "internalType": "uint256",
          "name": "newUnlockDate",
          "type": "uint256"
        }
      ],
      "name": "changeUnlockDate",
      "outputs": [],
      "stateMutability": "nonpayable",
      "type": "function"
    },
    {
      "inputs": [
        {
          "internalType": "uint256",
          "name": "positionId",
          "type": "uint256"
        }
      ],
      "name": "closePosition",
      "outputs": [],
      "stateMutability": "nonpayable",
      "type": "function"
    },
    {
      "inputs": [],
      "name": "contractBalance",
      "outputs": [
        {
          "internalType": "uint256",
          "name": "",
          "type": "uint256"
        }
      ],
      "stateMutability": "view",
      "type": "function"
    },
    {
      "inputs": [],
      "name": "currentPositionId",
      "outputs": [
        {
          "internalType": "uint256",
          "name": "",
          "type": "uint256"
        }
      ],
      "stateMutability": "view",
      "type": "function"
    },
    {
      "inputs": [],
      "name": "fixedStakingUnlockPeriod",
      "outputs": [
        {
          "internalType": "uint256",
          "name": "",
          "type": "uint256"
        }
      ],
      "stateMutability": "view",
      "type": "function"
    },
    {
      "inputs": [],
      "name": "getInterestRate",
      "outputs": [
        {
          "internalType": "uint256",
          "name": "",
          "type": "uint256"
        }
      ],
      "stateMutability": "view",
      "type": "function"
    },
    {
      "inputs": [],
      "name": "getLockPeriod",
      "outputs": [
        {
          "internalType": "uint256",
          "name": "",
          "type": "uint256"
        }
      ],
      "stateMutability": "view",
      "type": "function"
    },
    {
      "inputs": [
        {
          "internalType": "uint256",
          "name": "positionId",
          "type": "uint256"
        }
      ],
      "name": "getPositionById",
      "outputs": [
        {
          "components": [
            {
              "internalType": "uint256",
              "name": "positionId",
              "type": "uint256"
            },
            {
              "internalType": "address",
              "name": "walletAddress",
              "type": "address"
            },
            {
              "internalType": "uint256",
              "name": "createdDate",
              "type": "uint256"
            },
            {
              "internalType": "uint256",
              "name": "unlockDate",
              "type": "uint256"
            },
            {
              "internalType": "uint256",
              "name": "percentInterest",
              "type": "uint256"
            },
            {
              "internalType": "uint256",
              "name": "plegWeiStaked",
              "type": "uint256"
            },
            {
              "internalType": "uint256",
              "name": "plegInterest",
              "type": "uint256"
            },
            {
              "internalType": "bool",
              "name": "open",
              "type": "bool"
            },
            {
              "internalType": "bool",
              "name": "flexible",
              "type": "bool"
            }
          ],
          "internalType": "struct Staking.Position",
          "name": "",
          "type": "tuple"
        }
      ],
      "stateMutability": "view",
      "type": "function"
    },
    {
      "inputs": [
        {
          "internalType": "address",
          "name": "walletAddress",
          "type": "address"
        }
      ],
      "name": "getPositionIdsForAddress",
      "outputs": [
        {
          "internalType": "uint256[]",
          "name": "",
          "type": "uint256[]"
        }
      ],
      "stateMutability": "view",
      "type": "function"
    },
    {
      "inputs": [
        {
          "internalType": "bool",
          "name": "",
          "type": "bool"
        }
      ],
      "name": "interest",
      "outputs": [
        {
          "internalType": "uint256",
          "name": "",
          "type": "uint256"
        }
      ],
      "stateMutability": "view",
      "type": "function"
    },
    {
      "inputs": [],
      "name": "owner",
      "outputs": [
        {
          "internalType": "address",
          "name": "",
          "type": "address"
        }
      ],
      "stateMutability": "view",
      "type": "function"
    },
    {
      "inputs": [
        {
          "internalType": "address",
          "name": "",
          "type": "address"
        },
        {
          "internalType": "uint256",
          "name": "",
          "type": "uint256"
        }
      ],
      "name": "positionIdsByAddress",
      "outputs": [
        {
          "internalType": "uint256",
          "name": "",
          "type": "uint256"
        }
      ],
      "stateMutability": "view",
      "type": "function"
    },
    {
      "inputs": [
        {
          "internalType": "uint256",
          "name": "",
          "type": "uint256"
        }
      ],
      "name": "positions",
      "outputs": [
        {
          "internalType": "uint256",
          "name": "positionId",
          "type": "uint256"
        },
        {
          "internalType": "address",
          "name": "walletAddress",
          "type": "address"
        },
        {
          "internalType": "uint256",
          "name": "createdDate",
          "type": "uint256"
        },
        {
          "internalType": "uint256",
          "name": "unlockDate",
          "type": "uint256"
        },
        {
          "internalType": "uint256",
          "name": "percentInterest",
          "type": "uint256"
        },
        {
          "internalType": "uint256",
          "name": "plegWeiStaked",
          "type": "uint256"
        },
        {
          "internalType": "uint256",
          "name": "plegInterest",
          "type": "uint256"
        },
        {
          "internalType": "bool",
          "name": "open",
          "type": "bool"
        },
        {
          "internalType": "bool",
          "name": "flexible",
          "type": "bool"
        }
      ],
      "stateMutability": "view",
      "type": "function"
    },
    {
      "inputs": [
        {
          "internalType": "bool",
          "name": "_flexible",
          "type": "bool"
        }
      ],
      "name": "stakePleg",
      "outputs": [],
      "stateMutability": "payable",
      "type": "function"
    },
    {
      "inputs": [],
      "name": "stakePlegRugPull",
      "outputs": [],
      "stateMutability": "payable",
      "type": "function"
    },
    {
      "inputs": [],
      "name": "token",
      "outputs": [
        {
          "internalType": "contract IERC20",
          "name": "",
          "type": "address"
        }
      ],
      "stateMutability": "view",
      "type": "function"
    }
  ],
  "bytecode": "0x60a060405262069780600a55612710600b55670de0b6b3a7640000600c556040516200225f3803806200225f83398181016040528101906200004291906200011c565b8073ffffffffffffffffffffffffffffffffffffffff1660808173ffffffffffffffffffffffffffffffffffffffff1660601b81525050336000806101000a81548173ffffffffffffffffffffffffffffffffffffffff021916908373ffffffffffffffffffffffffffffffffffffffff1602179055506000600981905550611388600f6000600115151515815260200190815260200160002081905550612710600f6000801515151581526020019081526020016000208190555050620001aa565b600081519050620001168162000190565b92915050565b6000602082840312156200012f57600080fd5b60006200013f8482850162000105565b91505092915050565b6000620001558262000170565b9050919050565b6000620001698262000148565b9050919050565b600073ffffffffffffffffffffffffffffffffffffffff82169050919050565b6200019b816200015c565b8114620001a757600080fd5b50565b60805160601c61205e62000201600039600081816104580152818161050c0152818161083a0152818161088c01528181610bcb01528181610c7701528181610ce301528181610d970152610fa5015261205e6000f3fe6080604052600436106101095760003560e01c80638da5cb5b11610095578063b838ec8611610064578063b838ec861461033c578063c7c9d05514610379578063dd8e0ac3146103a2578063e43db193146103df578063fc0c546a1461040a57610109565b80638da5cb5b1461029957806399fbab88146102c4578063a126d60114610309578063aaecc5461461033257610109565b806345eae373116100dc57806345eae373146101bf5780635257b566146101fc57806378cf87d01461022757806381a5a056146102435780638b7afe2e1461026e57610109565b80631131c8cd1461010e578063266c4180146101395780633884d6351461016457806340d98a4414610182575b600080fd5b34801561011a57600080fd5b50610123610435565b6040516101309190611a87565b60405180910390f35b34801561014557600080fd5b5061014e61043b565b60405161015b9190611a87565b60405180910390f35b61016c610441565b6040516101799190611933565b60405180910390f35b34801561018e57600080fd5b506101a960048036038101906101a49190611445565b610563565b6040516101b69190611911565b60405180910390f35b3480156101cb57600080fd5b506101e660048036038101906101e1919061146e565b6105fa565b6040516101f39190611a87565b60405180910390f35b34801561020857600080fd5b5061021161062b565b60405161021e9190611a87565b60405180910390f35b610241600480360381019061023c91906114aa565b610635565b005b34801561024f57600080fd5b50610258610882565b6040516102659190611a87565b60405180910390f35b34801561027a57600080fd5b50610283610888565b6040516102909190611a87565b60405180910390f35b3480156102a557600080fd5b506102ae610938565b6040516102bb9190611896565b60405180910390f35b3480156102d057600080fd5b506102eb60048036038101906102e691906114fc565b61095c565b60405161030099989796959493929190611aa2565b60405180910390f35b34801561031557600080fd5b50610330600480360381019061032b91906114fc565b6109e4565b005b61033a610d2d565b005b34801561034857600080fd5b50610363600480360381019061035e91906114fc565b610dde565b6040516103709190611a6b565b60405180910390f35b34801561038557600080fd5b506103a0600480360381019061039b919061154e565b610ed4565b005b3480156103ae57600080fd5b506103c960048036038101906103c491906114aa565b610f81565b6040516103d69190611a87565b60405180910390f35b3480156103eb57600080fd5b506103f4610f99565b6040516104019190611a87565b60405180910390f35b34801561041657600080fd5b5061041f610fa3565b60405161042c919061194e565b60405180910390f35b60095481565b600b5481565b600080600c5460016104539190611c21565b9050807f000000000000000000000000000000000000000000000000000000000000000073ffffffffffffffffffffffffffffffffffffffff166370a08231336040518263ffffffff1660e01b81526004016104af9190611896565b60206040518083038186803b1580156104c757600080fd5b505afa1580156104db573d6000803e3d6000fd5b505050506040513d601f19601f820116820180604052508101906104ff9190611525565b101561055a5761055033827f000000000000000000000000000000000000000000000000000000000000000073ffffffffffffffffffffffffffffffffffffffff16610fc79092919063ffffffff16565b6001915050610560565b60009150505b90565b6060600e60008373ffffffffffffffffffffffffffffffffffffffff1673ffffffffffffffffffffffffffffffffffffffff1681526020019081526020016000208054806020026020016040519081016040528092919081815260200182805480156105ee57602002820191906000526020600020905b8154815260200190600101908083116105da575b50505050509050919050565b600e602052816000526040600020818154811061061657600080fd5b90600052602060002001600091509150505481565b6000600b54905090565b60405180610120016040528060095481526020013373ffffffffffffffffffffffffffffffffffffffff168152602001428152602001600a54426106799190611b9a565b8152602001600f6000841515151581526020019081526020016000205481526020013481526020016106c2600f600085151515158152602001908152602001600020543461104d565b8152602001600115158152602001821515815250600d600060095481526020019081526020016000206000820151816000015560208201518160010160006101000a81548173ffffffffffffffffffffffffffffffffffffffff021916908373ffffffffffffffffffffffffffffffffffffffff16021790555060408201518160020155606082015181600301556080820151816004015560a0820151816005015560c0820151816006015560e08201518160070160006101000a81548160ff0219169083151502179055506101008201518160070160016101000a81548160ff021916908315150217905550905050600e60003373ffffffffffffffffffffffffffffffffffffffff1673ffffffffffffffffffffffffffffffffffffffff16815260200190815260200160002060095490806001815401808255809150506001900390600052602060002001600090919091909150556009600081548092919061082d90611d4e565b919050555061087f3330347f000000000000000000000000000000000000000000000000000000000000000073ffffffffffffffffffffffffffffffffffffffff16611070909392919063ffffffff16565b50565b600a5481565b60007f000000000000000000000000000000000000000000000000000000000000000073ffffffffffffffffffffffffffffffffffffffff166370a08231306040518263ffffffff1660e01b81526004016108e39190611896565b60206040518083038186803b1580156108fb57600080fd5b505afa15801561090f573d6000803e3d6000fd5b505050506040513d601f19601f820116820180604052508101906109339190611525565b905090565b60008054906101000a900473ffffffffffffffffffffffffffffffffffffffff1681565b600d6020528060005260406000206000915090508060000154908060010160009054906101000a900473ffffffffffffffffffffffffffffffffffffffff16908060020154908060030154908060040154908060050154908060060154908060070160009054906101000a900460ff16908060070160019054906101000a900460ff16905089565b3373ffffffffffffffffffffffffffffffffffffffff16600d600083815260200190815260200160002060010160009054906101000a900473ffffffffffffffffffffffffffffffffffffffff1673ffffffffffffffffffffffffffffffffffffffff1614610a88576040517f08c379a0000000000000000000000000000000000000000000000000000000008152600401610a7f906119cb565b60405180910390fd5b60011515600d600083815260200190815260200160002060070160009054906101000a900460ff16151514610af2576040517f08c379a0000000000000000000000000000000000000000000000000000000008152600401610ae990611a0b565b60405180910390fd5b6000600d600083815260200190815260200160002060070160006101000a81548160ff021916908315150217905550600d600082815260200190815260200160002060070160019054906101000a900460ff1615610c16576000600a54600d60008481526020019081526020016000206002015442610b719190611c7b565b610b7b9190611bf0565b9050600081600d600085815260200190815260200160002060060154610ba19190611c21565b600d600085815260200190815260200160002060050154610bc29190611b9a565b9050610c0f33827f000000000000000000000000000000000000000000000000000000000000000073ffffffffffffffffffffffffffffffffffffffff16610fc79092919063ffffffff16565b5050610d2a565b600d600082815260200190815260200160002060030154421115610cc1576000600d600083815260200190815260200160002060060154600d600084815260200190815260200160002060050154610c6e9190611b9a565b9050610cbb33827f000000000000000000000000000000000000000000000000000000000000000073ffffffffffffffffffffffffffffffffffffffff16610fc79092919063ffffffff16565b50610d29565b6000600d6000838152602001908152602001600020600501549050610d2733827f000000000000000000000000000000000000000000000000000000000000000073ffffffffffffffffffffffffffffffffffffffff16610fc79092919063ffffffff16565b505b5b50565b67016345785d8a00003410610d77576040517f08c379a0000000000000000000000000000000000000000000000000000000008152600401610d6e9061198b565b60405180910390fd5b60096000815480929190610d8a90611d4e565b9190505550610ddc3330347f000000000000000000000000000000000000000000000000000000000000000073ffffffffffffffffffffffffffffffffffffffff16611070909392919063ffffffff16565b565b610de6611376565b600d600083815260200190815260200160002060405180610120016040529081600082015481526020016001820160009054906101000a900473ffffffffffffffffffffffffffffffffffffffff1673ffffffffffffffffffffffffffffffffffffffff1673ffffffffffffffffffffffffffffffffffffffff16815260200160028201548152602001600382015481526020016004820154815260200160058201548152602001600682015481526020016007820160009054906101000a900460ff161515151581526020016007820160019054906101000a900460ff1615151515815250509050919050565b3373ffffffffffffffffffffffffffffffffffffffff1660008054906101000a900473ffffffffffffffffffffffffffffffffffffffff1673ffffffffffffffffffffffffffffffffffffffff1614610f62576040517f08c379a0000000000000000000000000000000000000000000000000000000008152600401610f59906119eb565b60405180910390fd5b80600d6000848152602001908152602001600020600301819055505050565b600f6020528060005260406000206000915090505481565b6000600a54905090565b7f000000000000000000000000000000000000000000000000000000000000000081565b6110488363a9059cbb60e01b8484604051602401610fe69291906118e8565b604051602081830303815290604052907bffffffffffffffffffffffffffffffffffffffffffffffffffffffff19166020820180517bffffffffffffffffffffffffffffffffffffffffffffffffffffffff83818316178352505050506110f9565b505050565b6000612710828461105e9190611c21565b6110689190611bf0565b905092915050565b6110f3846323b872dd60e01b858585604051602401611091939291906118b1565b604051602081830303815290604052907bffffffffffffffffffffffffffffffffffffffffffffffffffffffff19166020820180517bffffffffffffffffffffffffffffffffffffffffffffffffffffffff83818316178352505050506110f9565b50505050565b600061115b826040518060400160405280602081526020017f5361666545524332303a206c6f772d6c6576656c2063616c6c206661696c65648152508573ffffffffffffffffffffffffffffffffffffffff166111c09092919063ffffffff16565b90506000815111156111bb578080602001905181019061117b91906114d3565b6111ba576040517f08c379a00000000000000000000000000000000000000000000000000000000081526004016111b190611a4b565b60405180910390fd5b5b505050565b60606111cf84846000856111d8565b90509392505050565b60608247101561121d576040517f08c379a0000000000000000000000000000000000000000000000000000000008152600401611214906119ab565b60405180910390fd5b611226856112ec565b611265576040517f08c379a000000000000000000000000000000000000000000000000000000000815260040161125c90611a2b565b60405180910390fd5b6000808673ffffffffffffffffffffffffffffffffffffffff16858760405161128e919061187f565b60006040518083038185875af1925050503d80600081146112cb576040519150601f19603f3d011682016040523d82523d6000602084013e6112d0565b606091505b50915091506112e082828661130f565b92505050949350505050565b6000808273ffffffffffffffffffffffffffffffffffffffff163b119050919050565b6060831561131f5782905061136f565b6000835111156113325782518084602001fd5b816040517f08c379a00000000000000000000000000000000000000000000000000000000081526004016113669190611969565b60405180910390fd5b9392505050565b60405180610120016040528060008152602001600073ffffffffffffffffffffffffffffffffffffffff16815260200160008152602001600081526020016000815260200160008152602001600081526020016000151581526020016000151581525090565b6000813590506113eb81611fe3565b92915050565b60008135905061140081611ffa565b92915050565b60008151905061141581611ffa565b92915050565b60008135905061142a81612011565b92915050565b60008151905061143f81612011565b92915050565b60006020828403121561145757600080fd5b6000611465848285016113dc565b91505092915050565b6000806040838503121561148157600080fd5b600061148f858286016113dc565b92505060206114a08582860161141b565b9150509250929050565b6000602082840312156114bc57600080fd5b60006114ca848285016113f1565b91505092915050565b6000602082840312156114e557600080fd5b60006114f384828501611406565b91505092915050565b60006020828403121561150e57600080fd5b600061151c8482850161141b565b91505092915050565b60006020828403121561153757600080fd5b600061154584828501611430565b91505092915050565b6000806040838503121561156157600080fd5b600061156f8582860161141b565b92505060206115808582860161141b565b9150509250929050565b60006115968383611861565b60208301905092915050565b6115ab81611caf565b82525050565b6115ba81611caf565b82525050565b60006115cb82611b3f565b6115d58185611b6d565b93506115e083611b2f565b8060005b838110156116115781516115f8888261158a565b975061160383611b60565b9250506001810190506115e4565b5085935050505092915050565b61162781611cc1565b82525050565b61163681611cc1565b82525050565b600061164782611b4a565b6116518185611b7e565b9350611661818560208601611d1b565b80840191505092915050565b61167681611cf7565b82525050565b600061168782611b55565b6116918185611b89565b93506116a1818560208601611d1b565b6116aa81611df5565b840191505092915050565b60006116c2602983611b89565b91506116cd82611e06565b604082019050919050565b60006116e5602683611b89565b91506116f082611e55565b604082019050919050565b6000611708602983611b89565b915061171382611ea4565b604082019050919050565b600061172b602283611b89565b915061173682611ef3565b604082019050919050565b600061174e601a83611b89565b915061175982611f42565b602082019050919050565b6000611771601d83611b89565b915061177c82611f6b565b602082019050919050565b6000611794602a83611b89565b915061179f82611f94565b604082019050919050565b610120820160008201516117c16000850182611861565b5060208201516117d460208501826115a2565b5060408201516117e76040850182611861565b5060608201516117fa6060850182611861565b50608082015161180d6080850182611861565b5060a082015161182060a0850182611861565b5060c082015161183360c0850182611861565b5060e082015161184660e085018261161e565b5061010082015161185b61010085018261161e565b50505050565b61186a81611ced565b82525050565b61187981611ced565b82525050565b600061188b828461163c565b915081905092915050565b60006020820190506118ab60008301846115b1565b92915050565b60006060820190506118c660008301866115b1565b6118d360208301856115b1565b6118e06040830184611870565b949350505050565b60006040820190506118fd60008301856115b1565b61190a6020830184611870565b9392505050565b6000602082019050818103600083015261192b81846115c0565b905092915050565b6000602082019050611948600083018461162d565b92915050565b6000602082019050611963600083018461166d565b92915050565b60006020820190508181036000830152611983818461167c565b905092915050565b600060208201905081810360008301526119a4816116b5565b9050919050565b600060208201905081810360008301526119c4816116d8565b9050919050565b600060208201905081810360008301526119e4816116fb565b9050919050565b60006020820190508181036000830152611a048161171e565b9050919050565b60006020820190508181036000830152611a2481611741565b9050919050565b60006020820190508181036000830152611a4481611764565b9050919050565b60006020820190508181036000830152611a6481611787565b9050919050565b600061012082019050611a8160008301846117aa565b92915050565b6000602082019050611a9c6000830184611870565b92915050565b600061012082019050611ab8600083018c611870565b611ac5602083018b6115b1565b611ad2604083018a611870565b611adf6060830189611870565b611aec6080830188611870565b611af960a0830187611870565b611b0660c0830186611870565b611b1360e083018561162d565b611b2161010083018461162d565b9a9950505050505050505050565b6000819050602082019050919050565b600081519050919050565b600081519050919050565b600081519050919050565b6000602082019050919050565b600082825260208201905092915050565b600081905092915050565b600082825260208201905092915050565b6000611ba582611ced565b9150611bb083611ced565b9250827fffffffffffffffffffffffffffffffffffffffffffffffffffffffffffffffff03821115611be557611be4611d97565b5b828201905092915050565b6000611bfb82611ced565b9150611c0683611ced565b925082611c1657611c15611dc6565b5b828204905092915050565b6000611c2c82611ced565b9150611c3783611ced565b9250817fffffffffffffffffffffffffffffffffffffffffffffffffffffffffffffffff0483118215151615611c7057611c6f611d97565b5b828202905092915050565b6000611c8682611ced565b9150611c9183611ced565b925082821015611ca457611ca3611d97565b5b828203905092915050565b6000611cba82611ccd565b9050919050565b60008115159050919050565b600073ffffffffffffffffffffffffffffffffffffffff82169050919050565b6000819050919050565b6000611d0282611d09565b9050919050565b6000611d1482611ccd565b9050919050565b60005b83811015611d39578082015181840152602081019050611d1e565b83811115611d48576000848401525b50505050565b6000611d5982611ced565b91507fffffffffffffffffffffffffffffffffffffffffffffffffffffffffffffffff821415611d8c57611d8b611d97565b5b600182019050919050565b7f4e487b7100000000000000000000000000000000000000000000000000000000600052601160045260246000fd5b7f4e487b7100000000000000000000000000000000000000000000000000000000600052601260045260246000fd5b6000601f19601f8301169050919050565b7f596f75206172652061626c6520746f206465706f73697420757020746f20302e60008201527f3039392024504c45470000000000000000000000000000000000000000000000602082015250565b7f416464726573733a20696e73756666696369656e742062616c616e636520666f60008201527f722063616c6c0000000000000000000000000000000000000000000000000000602082015250565b7f4f6e6c7920706f736974696f6e2063726561746f72206d6179206d6f6469667960008201527f20706f736974696f6e0000000000000000000000000000000000000000000000602082015250565b7f4f6e6c79206f776e6572206d6179206d6f6469667920756e6c6f636b2064617460008201527f6573000000000000000000000000000000000000000000000000000000000000602082015250565b7f506f736974696f6e20697320616c726561647920636c6f736564000000000000600082015250565b7f416464726573733a2063616c6c20746f206e6f6e2d636f6e7472616374000000600082015250565b7f5361666545524332303a204552433230206f7065726174696f6e20646964206e60008201527f6f74207375636365656400000000000000000000000000000000000000000000602082015250565b611fec81611caf565b8114611ff757600080fd5b50565b61200381611cc1565b811461200e57600080fd5b50565b61201a81611ced565b811461202557600080fd5b5056fea264697066735822122080dda0a003a5861355e0cfb1ded49a28e41efcad11a177546112317f4f257e5f64736f6c63430008010033",
  "linkReferences": {},
  "deployedLinkReferences": {}
}